{
  "_format": "hh-sol-artifact-1",
  "contractName": "TransactionManager",
  "sourceName": "contracts/TransactionManager.sol",
  "abi": [
    {
      "inputs": [
        {
          "internalType": "address",
          "name": "_tokenAddress",
          "type": "address"
        }
      ],
      "stateMutability": "nonpayable",
      "type": "constructor"
    },
    {
      "anonymous": false,
      "inputs": [
        {
          "indexed": true,
          "internalType": "address",
          "name": "flaggedAddress",
          "type": "address"
        }
      ],
      "name": "AddressFlagged",
      "type": "event"
    },
    {
      "anonymous": false,
      "inputs": [
        {
          "indexed": true,
          "internalType": "address",
          "name": "agent",
          "type": "address"
        }
      ],
      "name": "AgentAuthorized",
      "type": "event"
    },
    {
      "anonymous": false,
      "inputs": [
        {
          "indexed": true,
          "internalType": "address",
          "name": "user",
          "type": "address"
        },
        {
          "indexed": false,
          "internalType": "uint256",
          "name": "newLimit",
          "type": "uint256"
        }
      ],
      "name": "DailyLimitUpdated",
      "type": "event"
    },
    {
      "anonymous": false,
      "inputs": [
        {
          "indexed": true,
          "internalType": "address",
          "name": "previousOwner",
          "type": "address"
        },
        {
          "indexed": true,
          "internalType": "address",
          "name": "newOwner",
          "type": "address"
        }
      ],
      "name": "OwnershipTransferred",
      "type": "event"
    },
    {
      "anonymous": false,
      "inputs": [
        {
          "indexed": false,
          "internalType": "address",
          "name": "account",
          "type": "address"
        }
      ],
      "name": "Paused",
      "type": "event"
    },
    {
      "anonymous": false,
      "inputs": [
        {
          "indexed": true,
          "internalType": "uint256",
          "name": "transactionId",
          "type": "uint256"
        },
        {
          "indexed": true,
          "internalType": "address",
          "name": "sender",
          "type": "address"
        },
        {
          "indexed": true,
          "internalType": "address",
          "name": "receiver",
          "type": "address"
        },
        {
          "indexed": false,
          "internalType": "uint256",
          "name": "amount",
          "type": "uint256"
        },
        {
          "indexed": false,
          "internalType": "string",
          "name": "transactionType",
          "type": "string"
        }
      ],
      "name": "TransactionCreated",
      "type": "event"
    },
    {
      "anonymous": false,
      "inputs": [
        {
          "indexed": true,
          "internalType": "uint256",
          "name": "transactionId",
          "type": "uint256"
        }
      ],
      "name": "TransactionExecuted",
      "type": "event"
    },
    {
      "anonymous": false,
      "inputs": [
        {
          "indexed": true,
          "internalType": "uint256",
          "name": "transactionId",
          "type": "uint256"
        }
      ],
      "name": "TransactionReverted",
      "type": "event"
    },
    {
      "anonymous": false,
      "inputs": [
        {
          "indexed": false,
          "internalType": "address",
          "name": "account",
          "type": "address"
        }
      ],
      "name": "Unpaused",
      "type": "event"
    },
    {
      "anonymous": false,
      "inputs": [
        {
          "indexed": true,
          "internalType": "address",
          "name": "userAddress",
          "type": "address"
        },
        {
          "indexed": false,
          "internalType": "string",
          "name": "userId",
          "type": "string"
        }
      ],
      "name": "UserRegistered",
      "type": "event"
    },
    {
      "inputs": [],
      "name": "MAX_DAILY_LIMIT",
      "outputs": [
        {
          "internalType": "uint256",
          "name": "",
          "type": "uint256"
        }
      ],
      "stateMutability": "view",
      "type": "function"
    },
    {
      "inputs": [
        {
          "internalType": "address",
          "name": "",
          "type": "address"
        }
      ],
      "name": "authorizedAgents",
      "outputs": [
        {
          "internalType": "bool",
          "name": "",
          "type": "bool"
        }
      ],
      "stateMutability": "view",
      "type": "function"
    },
    {
      "inputs": [
        {
          "internalType": "address",
          "name": "receiver",
          "type": "address"
        },
        {
          "internalType": "uint256",
          "name": "amount",
          "type": "uint256"
        },
        {
          "internalType": "string",
          "name": "transactionType",
          "type": "string"
        },
        {
          "internalType": "string",
          "name": "note",
          "type": "string"
        },
        {
          "internalType": "string",
          "name": "location",
          "type": "string"
        }
      ],
      "name": "createTransaction",
      "outputs": [
        {
          "internalType": "uint256",
          "name": "",
          "type": "uint256"
        }
      ],
      "stateMutability": "nonpayable",
      "type": "function"
    },
    {
      "inputs": [
        {
          "internalType": "uint256",
          "name": "transactionId",
          "type": "uint256"
        }
      ],
      "name": "executeTransaction",
      "outputs": [],
      "stateMutability": "nonpayable",
      "type": "function"
    },
    {
      "inputs": [],
      "name": "finguardToken",
      "outputs": [
        {
          "internalType": "contract FinGuardToken",
          "name": "",
          "type": "address"
        }
      ],
      "stateMutability": "view",
      "type": "function"
    },
    {
      "inputs": [
        {
          "internalType": "address",
          "name": "addressToFlag",
          "type": "address"
        }
      ],
      "name": "flagAddress",
      "outputs": [],
      "stateMutability": "nonpayable",
      "type": "function"
    },
    {
      "inputs": [
        {
          "internalType": "address",
          "name": "",
          "type": "address"
        }
      ],
      "name": "flaggedAddresses",
      "outputs": [
        {
          "internalType": "bool",
          "name": "",
          "type": "bool"
        }
      ],
      "stateMutability": "view",
      "type": "function"
    },
    {
      "inputs": [
        {
          "internalType": "uint256",
          "name": "transactionId",
          "type": "uint256"
        }
      ],
      "name": "getTransaction",
      "outputs": [
        {
          "internalType": "uint256",
          "name": "id",
          "type": "uint256"
        },
        {
          "internalType": "address",
          "name": "sender",
          "type": "address"
        },
        {
          "internalType": "address",
          "name": "receiver",
          "type": "address"
        },
        {
          "internalType": "uint256",
          "name": "amount",
          "type": "uint256"
        },
        {
          "internalType": "string",
          "name": "transactionType",
          "type": "string"
        },
        {
          "internalType": "string",
          "name": "note",
          "type": "string"
        },
        {
          "internalType": "uint256",
          "name": "timestamp",
          "type": "uint256"
        },
        {
          "internalType": "bool",
          "name": "isExecuted",
          "type": "bool"
        },
        {
          "internalType": "bool",
          "name": "isReverted",
          "type": "bool"
        }
      ],
      "stateMutability": "view",
      "type": "function"
    },
    {
      "inputs": [
        {
          "internalType": "address",
          "name": "userAddress",
          "type": "address"
        }
      ],
      "name": "getUser",
      "outputs": [
        {
          "internalType": "string",
          "name": "userId",
          "type": "string"
        },
        {
          "internalType": "uint256",
          "name": "balance",
          "type": "uint256"
        },
        {
          "internalType": "bool",
          "name": "isActive",
          "type": "bool"
        },
        {
          "internalType": "bool",
          "name": "isAgent",
          "type": "bool"
        },
        {
          "internalType": "uint256",
          "name": "dailyLimit",
          "type": "uint256"
        },
        {
          "internalType": "uint256",
          "name": "dailySpent",
          "type": "uint256"
        }
      ],
      "stateMutability": "view",
      "type": "function"
    },
    {
      "inputs": [],
      "name": "nextTransactionId",
      "outputs": [
        {
          "internalType": "uint256",
          "name": "",
          "type": "uint256"
        }
      ],
      "stateMutability": "view",
      "type": "function"
    },
    {
      "inputs": [],
      "name": "owner",
      "outputs": [
        {
          "internalType": "address",
          "name": "",
          "type": "address"
        }
      ],
      "stateMutability": "view",
      "type": "function"
    },
    {
      "inputs": [],
      "name": "pause",
      "outputs": [],
      "stateMutability": "nonpayable",
      "type": "function"
    },
    {
      "inputs": [],
      "name": "paused",
      "outputs": [
        {
          "internalType": "bool",
          "name": "",
          "type": "bool"
        }
      ],
      "stateMutability": "view",
      "type": "function"
    },
    {
      "inputs": [
        {
          "internalType": "string",
          "name": "userId",
          "type": "string"
        },
        {
          "internalType": "address",
          "name": "userAddress",
          "type": "address"
        },
        {
          "internalType": "uint256",
          "name": "dailyLimit",
          "type": "uint256"
        },
        {
          "internalType": "bool",
          "name": "isAgent",
          "type": "bool"
        }
      ],
      "name": "registerUser",
      "outputs": [],
      "stateMutability": "nonpayable",
      "type": "function"
    },
    {
      "inputs": [],
      "name": "renounceOwnership",
      "outputs": [],
      "stateMutability": "nonpayable",
      "type": "function"
    },
    {
      "inputs": [
        {
          "internalType": "uint256",
          "name": "transactionId",
          "type": "uint256"
        }
      ],
      "name": "revertTransaction",
      "outputs": [],
      "stateMutability": "nonpayable",
      "type": "function"
    },
    {
      "inputs": [],
      "name": "transactionFee",
      "outputs": [
        {
          "internalType": "uint256",
          "name": "",
          "type": "uint256"
        }
      ],
      "stateMutability": "view",
      "type": "function"
    },
    {
      "inputs": [
        {
          "internalType": "uint256",
          "name": "",
          "type": "uint256"
        }
      ],
      "name": "transactions",
      "outputs": [
        {
          "internalType": "uint256",
          "name": "id",
          "type": "uint256"
        },
        {
          "internalType": "address",
          "name": "sender",
          "type": "address"
        },
        {
          "internalType": "address",
          "name": "receiver",
          "type": "address"
        },
        {
          "internalType": "uint256",
          "name": "amount",
          "type": "uint256"
        },
        {
          "internalType": "string",
          "name": "transactionType",
          "type": "string"
        },
        {
          "internalType": "string",
          "name": "note",
          "type": "string"
        },
        {
          "internalType": "string",
          "name": "location",
          "type": "string"
        },
        {
          "internalType": "uint256",
          "name": "timestamp",
          "type": "uint256"
        },
        {
          "internalType": "bool",
          "name": "isExecuted",
          "type": "bool"
        },
        {
          "internalType": "bool",
          "name": "isReverted",
          "type": "bool"
        }
      ],
      "stateMutability": "view",
      "type": "function"
    },
    {
      "inputs": [
        {
          "internalType": "address",
          "name": "newOwner",
          "type": "address"
        }
      ],
      "name": "transferOwnership",
      "outputs": [],
      "stateMutability": "nonpayable",
      "type": "function"
    },
    {
      "inputs": [],
      "name": "unpause",
      "outputs": [],
      "stateMutability": "nonpayable",
      "type": "function"
    },
    {
      "inputs": [
        {
          "internalType": "address",
          "name": "user",
          "type": "address"
        },
        {
          "internalType": "uint256",
          "name": "newLimit",
          "type": "uint256"
        }
      ],
      "name": "updateDailyLimit",
      "outputs": [],
      "stateMutability": "nonpayable",
      "type": "function"
    },
    {
      "inputs": [
        {
          "internalType": "string",
          "name": "",
          "type": "string"
        }
      ],
      "name": "userIdToAddress",
      "outputs": [
        {
          "internalType": "address",
          "name": "",
          "type": "address"
        }
      ],
      "stateMutability": "view",
      "type": "function"
    },
    {
      "inputs": [
        {
          "internalType": "address",
          "name": "",
          "type": "address"
        }
      ],
      "name": "users",
      "outputs": [
        {
          "internalType": "address",
          "name": "walletAddress",
          "type": "address"
        },
        {
          "internalType": "string",
          "name": "userId",
          "type": "string"
        },
        {
          "internalType": "uint256",
          "name": "balance",
          "type": "uint256"
        },
        {
          "internalType": "bool",
          "name": "isActive",
          "type": "bool"
        },
        {
          "internalType": "bool",
          "name": "isAgent",
          "type": "bool"
        },
        {
          "internalType": "uint256",
          "name": "dailyLimit",
          "type": "uint256"
        },
        {
          "internalType": "uint256",
          "name": "dailySpent",
          "type": "uint256"
        },
        {
          "internalType": "uint256",
          "name": "lastResetDay",
          "type": "uint256"
        }
      ],
      "stateMutability": "view",
      "type": "function"
    }
  ],
  "bytecode": "0x608060405266038d7ea4c680006009553480156200001c57600080fd5b5060405162002747380380620027478339810160408190526200003f91620000ce565b6200004a336200007e565b6001808055600280546001600160a01b03909316610100026001600160a81b03199093169290921790915560085562000100565b600080546001600160a01b038381166001600160a01b0319831681178455604051919092169283917f8be0079c531659141344cd1fd0a4f28419497f9722a3daafe3b4186f6b6457e09190a35050565b600060208284031215620000e157600080fd5b81516001600160a01b0381168114620000f957600080fd5b9392505050565b61263780620001106000396000f3fe608060405234801561001057600080fd5b506004361061014d5760003560e01c80639ace38c2116100c3578063c6e3917e1161007c578063c6e3917e14610324578063d7ca38f314610337578063e62a4c9f14610340578063ee22610b14610351578063efd7606514610364578063f2fde38b1461038757600080fd5b80639ace38c2146102635780639ed3edf01461028c578063a6c6c11c146102a3578063a87430ba146102b6578063badfbe01146102dd578063c21be6ae146102f057600080fd5b80633f4ba83a116101155780633f4ba83a1461020a5780635c975abb146102125780636f77926b1461021d578063715018a6146102425780638456cb591461024a5780638da5cb5b1461025257600080fd5b806317f49aea146101525780632383d9cd1461016757806333ea3dc81461019f57806336002b97146101c757806337cb2e09146101f7575b600080fd5b610165610160366004612041565b61039a565b005b61018a6101753660046120ab565b60076020526000908152604090205460ff1681565b60405190151581526020015b60405180910390f35b6101b26101ad3660046120cd565b6106b5565b60405161019699989796959493929190612136565b6002546101df9061010090046001600160a01b031681565b6040516001600160a01b039091168152602001610196565b6101656102053660046120ab565b610966565b610165610a26565b60025460ff1661018a565b61023061022b3660046120ab565b610a38565b604051610196969594939291906121a9565b610165610b9d565b610165610baf565b6000546001600160a01b03166101df565b6102766102713660046120cd565b610bbf565b6040516101969a999897969594939291906121e5565b61029560095481565b604051908152602001610196565b6101656102b13660046120cd565b610dbb565b6102c96102c43660046120ab565b611191565b60405161019698979695949392919061226e565b6102956102eb3660046122c6565b61126e565b6101df6102fe366004612369565b80516020818301810180516005825292820191909301209152546001600160a01b031681565b6101656103323660046123a6565b6116cb565b61029560085481565b61029569021e19e0c9bab240000081565b61016561035f3660046120cd565b6117e6565b61018a6103723660046120ab565b60066020526000908152604090205460ff1681565b6101656103953660046120ab565b611bfd565b6103a2611c73565b60006001600160a01b03166005856040516103bd91906123d0565b908152604051908190036020019020546001600160a01b0316146104215760405162461bcd60e51b81526020600482015260166024820152755573657220494420616c72656164792065786973747360501b60448201526064015b60405180910390fd5b6001600160a01b0383811660009081526004602052604090205416156104895760405162461bcd60e51b815260206004820152601a60248201527f4164647265737320616c726561647920726567697374657265640000000000006044820152606401610418565b69021e19e0c9bab24000008211156104e35760405162461bcd60e51b815260206004820152601b60248201527f4461696c79206c696d69742065786365656473206d6178696d756d00000000006044820152606401610418565b604051806101000160405280846001600160a01b031681526020018581526020016000815260200160011515815260200182151581526020018381526020016000815260200162015180426105389190612402565b90526001600160a01b038481166000908152600460209081526040909120835181546001600160a01b0319169316929092178255820151600182019061057e90826124ad565b5060408281015160028301556060830151600383018054608086015115156101000261ff00199315159390931661ffff199091161791909117905560a0830151600483015560c083015160058084019190915560e090930151600690920191909155518491906105ef9087906123d0565b90815260405190819003602001902080546001600160a01b03929092166001600160a01b0319909216919091179055801561066e576001600160a01b038316600081815260066020526040808220805460ff19166001179055517f26e663c48c070d2d3c2bf6bcf88dc0a1e3ae99c58c36411130bed5924cf952669190a25b826001600160a01b03167f48cac28ad4dc618e15f4c2dd5e97751182f166de97b25618318b2112aa951a2f856040516106a7919061256d565b60405180910390a250505050565b60008181526003602081815260408084208151610140810183528154815260018201546001600160a01b039081169482019490945260028201549093169183019190915291820154606082810191909152600483018054859485948594938493869384938493849391929160808401919061072f90612424565b80601f016020809104026020016040519081016040528092919081815260200182805461075b90612424565b80156107a85780601f1061077d576101008083540402835291602001916107a8565b820191906000526020600020905b81548152906001019060200180831161078b57829003601f168201915b505050505081526020016005820180546107c190612424565b80601f01602080910402602001604051908101604052809291908181526020018280546107ed90612424565b801561083a5780601f1061080f5761010080835404028352916020019161083a565b820191906000526020600020905b81548152906001019060200180831161081d57829003601f168201915b5050505050815260200160068201805461085390612424565b80601f016020809104026020016040519081016040528092919081815260200182805461087f90612424565b80156108cc5780601f106108a1576101008083540402835291602001916108cc565b820191906000526020600020905b8154815290600101906020018083116108af57829003601f168201915b50505050508152602001600782015481526020016008820160009054906101000a900460ff161515151581526020016008820160019054906101000a900460ff1615151515815250509050806000015181602001518260400151836060015184608001518560a001518660e00151876101000151886101200151995099509950995099509950995099509950509193959799909294969850565b3360009081526006602052604090205460ff168061098e57506000546001600160a01b031633145b6109da5760405162461bcd60e51b815260206004820181905260248201527f4e6f7420617574686f72697a656420746f20666c6167206164647265737365736044820152606401610418565b6001600160a01b038116600081815260076020526040808220805460ff19166001179055517f6ad00ef94697b43901f33d12114de0ba23bde2354104d99938a33af1078d9c4b9190a250565b610a2e611c73565b610a36611ccd565b565b6001600160a01b038082166000908152600460209081526040808320815161010081019092528054909416815260018401805460609585948594859485948594929384019190610a8790612424565b80601f0160208091040260200160405190810160405280929190818152602001828054610ab390612424565b8015610b005780601f10610ad557610100808354040283529160200191610b00565b820191906000526020600020905b815481529060010190602001808311610ae357829003601f168201915b50505050508152602001600282015481526020016003820160009054906101000a900460ff161515151581526020016003820160019054906101000a900460ff161515151581526020016004820154815260200160058201548152602001600682015481525050905080602001518160400151826060015183608001518460a001518560c001519650965096509650965096505091939550919395565b610ba5611c73565b610a366000611d1f565b610bb7611c73565b610a36611d6f565b60036020819052600091825260409091208054600182015460028301549383015460048401805493956001600160a01b0393841695931693919291610c0390612424565b80601f0160208091040260200160405190810160405280929190818152602001828054610c2f90612424565b8015610c7c5780601f10610c5157610100808354040283529160200191610c7c565b820191906000526020600020905b815481529060010190602001808311610c5f57829003601f168201915b505050505090806005018054610c9190612424565b80601f0160208091040260200160405190810160405280929190818152602001828054610cbd90612424565b8015610d0a5780601f10610cdf57610100808354040283529160200191610d0a565b820191906000526020600020905b815481529060010190602001808311610ced57829003601f168201915b505050505090806006018054610d1f90612424565b80601f0160208091040260200160405190810160405280929190818152602001828054610d4b90612424565b8015610d985780601f10610d6d57610100808354040283529160200191610d98565b820191906000526020600020905b815481529060010190602001808311610d7b57829003601f168201915b50505050600783015460089093015491929160ff8082169250610100909104168a565b3360009081526006602052604090205460ff1680610de357506000546001600160a01b031633145b610e3b5760405162461bcd60e51b8152602060048201526024808201527f4e6f7420617574686f72697a656420746f20726576657274207472616e7361636044820152633a34b7b760e11b6064820152608401610418565b60008181526003602052604081208054909103610e9a5760405162461bcd60e51b815260206004820152601a60248201527f5472616e73616374696f6e20646f6573206e6f742065786973740000000000006044820152606401610418565b600881015460ff16610eee5760405162461bcd60e51b815260206004820152601c60248201527f5472616e73616374696f6e206e6f7420657865637574656420796574000000006044820152606401610418565b6008810154610100900460ff1615610f485760405162461bcd60e51b815260206004820152601c60248201527f5472616e73616374696f6e20616c7265616479207265766572746564000000006044820152606401610418565b6002805490820154600183015460038401546040516323b872dd60e01b81526001600160a01b0393841660048201529183166024830152604482015261010090920416906323b872dd906064016020604051808303816000875af1158015610fb4573d6000803e3d6000fd5b505050506040513d601f19601f82011682018060405250810190610fd89190612580565b6110245760405162461bcd60e51b815260206004820152601e60248201527f546f6b656e207472616e7366657220726576657273616c206661696c656400006044820152606401610418565b60025460018201546040516370a0823160e01b81526001600160a01b03918216600482015261010090920416906370a0823190602401602060405180830381865afa158015611077573d6000803e3d6000fd5b505050506040513d601f19601f8201168201806040525081019061109b919061259d565b60018201546001600160a01b0390811660009081526004602081905260409182902060029081019490945583549385015491516370a0823160e01b81529183169082015261010090920416906370a0823190602401602060405180830381865afa15801561110d573d6000803e3d6000fd5b505050506040513d601f19601f82011682018060405250810190611131919061259d565b6002808301546001600160a01b03166000908152600460205260408082209092019290925560088301805461ff0019166101001790555183917f40767c3d47445db1e83ab478416f46c6c60d8edfda5098db32e3b2868818450291a25050565b600460205260009081526040902080546001820180546001600160a01b0390921692916111bd90612424565b80601f01602080910402602001604051908101604052809291908181526020018280546111e990612424565b80156112365780601f1061120b57610100808354040283529160200191611236565b820191906000526020600020905b81548152906001019060200180831161121957829003601f168201915b50505060028401546003850154600486015460058701546006909701549596929560ff80841696506101009093049092169350919088565b6000611278611dac565b611280611df2565b3360009081526004602052604090206003015460ff166112ec5760405162461bcd60e51b815260206004820152602160248201527f53656e646572206e6f742072656769737465726564206f7220696e61637469766044820152606560f81b6064820152608401610418565b6001600160a01b03861660009081526004602052604090206003015460ff166113635760405162461bcd60e51b815260206004820152602360248201527f5265636569766572206e6f742072656769737465726564206f7220696e61637460448201526269766560e81b6064820152608401610418565b3360009081526007602052604090205460ff16156113c35760405162461bcd60e51b815260206004820152601960248201527f53656e646572206164647265737320697320666c6167676564000000000000006044820152606401610418565b6001600160a01b03861660009081526007602052604090205460ff161561142c5760405162461bcd60e51b815260206004820152601b60248201527f5265636569766572206164647265737320697320666c616767656400000000006044820152606401610418565b6000851161147c5760405162461bcd60e51b815260206004820181905260248201527f416d6f756e74206d7573742062652067726561746572207468616e207a65726f6044820152606401610418565b6114863386611e4b565b6002546040516370a0823160e01b8152336004820152869161010090046001600160a01b0316906370a0823190602401602060405180830381865afa1580156114d3573d6000803e3d6000fd5b505050506040513d601f19601f820116820180604052508101906114f7919061259d565b101561153c5760405162461bcd60e51b8152602060048201526014602482015273496e73756666696369656e742062616c616e636560601b6044820152606401610418565b600880546000918261154d836125b6565b9091555060408051610140810182528281523360208083019182526001600160a01b038c8116848601908152606085018d8152608086018d815260a087018d905260c087018c90524260e0880152600061010088018190526101208801819052898152600395869052979097208651815594516001860180549185166001600160a01b03199283161790559151600286018054919094169216919091179091555190820155915192935091600482019061160790826124ad565b5060a0820151600582019061161c90826124ad565b5060c0820151600682019061163190826124ad565b5060e0820151600782015561010080830151600890920180546101209094015161ffff1990941692151561ff00191692909217921515029190911790556040516001600160a01b03881690339083907fd89212767b09009579b99fc5cbef0ea94e619624ff6501e3b609bb2acb5b947c906116af908b908b906125cf565b60405180910390a490506116c260018055565b95945050505050565b6116d3611c73565b6001600160a01b03828116600090815260046020526040902054166117305760405162461bcd60e51b8152602060048201526013602482015272155cd95c881b9bdd081c9959da5cdd195c9959606a1b6044820152606401610418565b69021e19e0c9bab240000081111561178a5760405162461bcd60e51b815260206004820152601b60248201527f4461696c79206c696d69742065786365656473206d6178696d756d00000000006044820152606401610418565b6001600160a01b03821660008181526004602081905260409182902001839055517f074424510750f675220b94bac388bff82d6407b38f341b0226af2ab45af33dc2906117da9084815260200190565b60405180910390a25050565b6117ee611df2565b6000818152600360205260408120805490910361184d5760405162461bcd60e51b815260206004820152601a60248201527f5472616e73616374696f6e20646f6573206e6f742065786973740000000000006044820152606401610418565b600881015460ff16156118a25760405162461bcd60e51b815260206004820152601c60248201527f5472616e73616374696f6e20616c7265616479206578656375746564000000006044820152606401610418565b6008810154610100900460ff16156118fc5760405162461bcd60e51b815260206004820152601860248201527f5472616e73616374696f6e2077617320726576657274656400000000000000006044820152606401610418565b60018101546001600160a01b031633148061192657503360009081526006602052604090205460ff165b8061193b57506000546001600160a01b031633145b6119955760405162461bcd60e51b815260206004820152602560248201527f4e6f7420617574686f72697a656420746f2065786563757465207472616e736160448201526431ba34b7b760d91b6064820152608401610418565b6002805460018301549183015460038401546040516323b872dd60e01b81526001600160a01b03948516600482015291841660248301526044820152610100909104909116906323b872dd906064016020604051808303816000875af1158015611a03573d6000803e3d6000fd5b505050506040513d601f19601f82011682018060405250810190611a279190612580565b611a6b5760405162461bcd60e51b8152602060048201526015602482015274151bdad95b881d1c985b9cd9995c8819985a5b1959605a1b6044820152606401610418565b60025460018201546040516370a0823160e01b81526001600160a01b03918216600482015261010090920416906370a0823190602401602060405180830381865afa158015611abe573d6000803e3d6000fd5b505050506040513d601f19601f82011682018060405250810190611ae2919061259d565b60018201546001600160a01b0390811660009081526004602081905260409182902060029081019490945583549385015491516370a0823160e01b81529183169082015261010090920416906370a0823190602401602060405180830381865afa158015611b54573d6000803e3d6000fd5b505050506040513d601f19601f82011682018060405250810190611b78919061259d565b6002808301546001600160a01b0390811660009081526004602052604090209091019190915560018201546003830154611bb6929190911690611ef7565b60088101805460ff1916600117905560405182907f15ed165a284872ea7017f03df402a0cadfbfab588320ffaf83f160c2f82781c790600090a250611bfa60018055565b50565b611c05611c73565b6001600160a01b038116611c6a5760405162461bcd60e51b815260206004820152602660248201527f4f776e61626c653a206e6577206f776e657220697320746865207a65726f206160448201526564647265737360d01b6064820152608401610418565b611bfa81611d1f565b6000546001600160a01b03163314610a365760405162461bcd60e51b815260206004820181905260248201527f4f776e61626c653a2063616c6c6572206973206e6f7420746865206f776e65726044820152606401610418565b611cd5611f2b565b6002805460ff191690557f5db9ee0a495bf2e6ff9c91a7834c1ba4fdd244a5e8aa4e537bd38aeae4b073aa335b6040516001600160a01b03909116815260200160405180910390a1565b600080546001600160a01b038381166001600160a01b0319831681178455604051919092169283917f8be0079c531659141344cd1fd0a4f28419497f9722a3daafe3b4186f6b6457e09190a35050565b611d77611dac565b6002805460ff191660011790557f62e78cea01bee320cd4e420270b5ea74000d11b0c9f74754ebdbfc544b05a258611d023390565b60025460ff1615610a365760405162461bcd60e51b815260206004820152601060248201526f14185d5cd8589b194e881c185d5cd95960821b6044820152606401610418565b600260015403611e445760405162461bcd60e51b815260206004820152601f60248201527f5265656e7472616e637947756172643a207265656e7472616e742063616c6c006044820152606401610418565b6002600155565b6001600160a01b038216600090815260046020526040812090611e716201518042612402565b90508160060154811115611e8e5760006005830155600682018190555b8160040154838360050154611ea391906125e8565b1115611ef15760405162461bcd60e51b815260206004820152601d60248201527f4461696c79207370656e64696e67206c696d69742065786365656465640000006044820152606401610418565b50505050565b6001600160a01b03821660009081526004602052604081206005018054839290611f229084906125e8565b90915550505050565b60025460ff16610a365760405162461bcd60e51b815260206004820152601460248201527314185d5cd8589b194e881b9bdd081c185d5cd95960621b6044820152606401610418565b634e487b7160e01b600052604160045260246000fd5b600082601f830112611f9b57600080fd5b813567ffffffffffffffff80821115611fb657611fb6611f74565b604051601f8301601f19908116603f01168101908282118183101715611fde57611fde611f74565b81604052838152866020858801011115611ff757600080fd5b836020870160208301376000602085830101528094505050505092915050565b80356001600160a01b038116811461202e57600080fd5b919050565b8015158114611bfa57600080fd5b6000806000806080858703121561205757600080fd5b843567ffffffffffffffff81111561206e57600080fd5b61207a87828801611f8a565b94505061208960208601612017565b92506040850135915060608501356120a081612033565b939692955090935050565b6000602082840312156120bd57600080fd5b6120c682612017565b9392505050565b6000602082840312156120df57600080fd5b5035919050565b60005b838110156121015781810151838201526020016120e9565b50506000910152565b600081518084526121228160208601602086016120e6565b601f01601f19169290920160200192915050565b8981526001600160a01b0389811660208301528816604082015260608101879052610120608082018190526000906121708382018961210a565b905082810360a0840152612184818861210a565b60c0840196909652505091151560e08301521515610100909101529695505050505050565b60c0815260006121bc60c083018961210a565b60208301979097525093151560408501529115156060840152608083015260a090910152919050565b8a81526001600160a01b038a8116602083015289166040820152606081018890526101406080820181905260009061221f8382018a61210a565b905082810360a0840152612233818961210a565b905082810360c0840152612247818861210a565b60e08401969096525050911515610100830152151561012090910152979650505050505050565b6001600160a01b0389168152610100602082018190526000906122938382018b61210a565b604084019990995250509415156060860152921515608085015260a084019190915260c083015260e09091015292915050565b600080600080600060a086880312156122de57600080fd5b6122e786612017565b945060208601359350604086013567ffffffffffffffff8082111561230b57600080fd5b61231789838a01611f8a565b9450606088013591508082111561232d57600080fd5b61233989838a01611f8a565b9350608088013591508082111561234f57600080fd5b5061235c88828901611f8a565b9150509295509295909350565b60006020828403121561237b57600080fd5b813567ffffffffffffffff81111561239257600080fd5b61239e84828501611f8a565b949350505050565b600080604083850312156123b957600080fd5b6123c283612017565b946020939093013593505050565b600082516123e28184602087016120e6565b9190910192915050565b634e487b7160e01b600052601160045260246000fd5b60008261241f57634e487b7160e01b600052601260045260246000fd5b500490565b600181811c9082168061243857607f821691505b60208210810361245857634e487b7160e01b600052602260045260246000fd5b50919050565b601f8211156124a857600081815260208120601f850160051c810160208610156124855750805b601f850160051c820191505b818110156124a457828155600101612491565b5050505b505050565b815167ffffffffffffffff8111156124c7576124c7611f74565b6124db816124d58454612424565b8461245e565b602080601f83116001811461251057600084156124f85750858301515b600019600386901b1c1916600185901b1785556124a4565b600085815260208120601f198616915b8281101561253f57888601518255948401946001909101908401612520565b508582101561255d5787850151600019600388901b60f8161c191681555b5050505050600190811b01905550565b6020815260006120c6602083018461210a565b60006020828403121561259257600080fd5b81516120c681612033565b6000602082840312156125af57600080fd5b5051919050565b6000600182016125c8576125c86123ec565b5060010190565b82815260406020820152600061239e604083018461210a565b808201808211156125fb576125fb6123ec565b9291505056fea26469706673582212204401ddfaaec83da5cc83b6dd64cae117e4bc0f63865899e47181d35fe67b45eb64736f6c63430008130033",
  "linkReferences": {},
  "deployedLinkReferences": {}
}