{"contracts/BudgetManager.sol":{"BudgetManager":{"abi":[{"inputs":[{"internalType":"address","name":"_tokenAddress","type":"address"}],"stateMutability":"nonpayable","type":"constructor"},{"anonymous":false,"inputs":[{"indexed":true,"internalType":"uint256","name":"budgetId","type":"uint256"}],"name":"BudgetCompleted","type":"event"},{"anonymous":false,"inputs":[{"indexed":true,"internalType":"uint256","name":"budgetId","type":"uint256"},{"indexed":true,"internalType":"address","name":"user","type":"address"},{"indexed":false,"internalType":"string","name":"category","type":"string"},{"indexed":false,"internalType":"uint256","name":"allocatedAmount","type":"uint256"},{"indexed":false,"internalType":"uint256","name":"startDate","type":"uint256"},{"indexed":false,"internalType":"uint256","name":"endDate","type":"uint256"}],"name":"BudgetCreated","type":"event"},{"anonymous":false,"inputs":[{"indexed":true,"internalType":"uint256","name":"budgetId","type":"uint256"},{"indexed":false,"internalType":"uint256","name":"overspentAmount","type":"uint256"}],"name":"BudgetExceeded","type":"event"},{"anonymous":false,"inputs":[{"indexed":true,"internalType":"uint256","name":"budgetId","type":"uint256"},{"indexed":false,"internalType":"uint256","name":"newAllocatedAmount","type":"uint256"}],"name":"BudgetUpdated","type":"event"},{"anonymous":false,"inputs":[{"indexed":true,"internalType":"address","name":"previousOwner","type":"address"},{"indexed":true,"internalType":"address","name":"newOwner","type":"address"}],"name":"OwnershipTransferred","type":"event"},{"anonymous":false,"inputs":[{"indexed":true,"internalType":"uint256","name":"budgetId","type":"uint256"},{"indexed":false,"internalType":"uint256","name":"amount","type":"uint256"},{"indexed":false,"internalType":"string","name":"description","type":"string"}],"name":"SpendingRecorded","type":"event"},{"inputs":[{"internalType":"uint256","name":"","type":"uint256"},{"internalType":"uint256","name":"","type":"uint256"}],"name":"budgetSpending","outputs":[{"internalType":"uint256","name":"budgetId","type":"uint256"},{"internalType":"uint256","name":"amount","type":"uint256"},{"internalType":"string","name":"description","type":"string"},{"internalType":"uint256","name":"timestamp","type":"uint256"}],"stateMutability":"view","type":"function"},{"inputs":[{"internalType":"uint256","name":"","type":"uint256"}],"name":"budgets","outputs":[{"internalType":"uint256","name":"id","type":"uint256"},{"internalType":"address","name":"user","type":"address"},{"internalType":"string","name":"category","type":"string"},{"internalType":"uint256","name":"allocatedAmount","type":"uint256"},{"internalType":"uint256","name":"spentAmount","type":"uint256"},{"internalType":"uint256","name":"startDate","type":"uint256"},{"internalType":"uint256","name":"endDate","type":"uint256"},{"internalType":"bool","name":"isActive","type":"bool"}],"stateMutability":"view","type":"function"},{"inputs":[{"internalType":"string","name":"","type":"string"},{"internalType":"uint256","name":"","type":"uint256"}],"name":"categoryBudgets","outputs":[{"internalType":"uint256","name":"","type":"uint256"}],"stateMutability":"view","type":"function"},{"inputs":[{"internalType":"address","name":"user","type":"address"},{"internalType":"string","name":"category","type":"string"},{"internalType":"uint256","name":"amount","type":"uint256"}],"name":"checkBudgetLimits","outputs":[{"internalType":"bool","name":"withinLimit","type":"bool"},{"internalType":"uint256","name":"availableAmount","type":"uint256"},{"internalType":"uint256","name":"budgetId","type":"uint256"}],"stateMutability":"view","type":"function"},{"inputs":[{"internalType":"address","name":"user","type":"address"},{"internalType":"string","name":"category","type":"string"},{"internalType":"uint256","name":"allocatedAmount","type":"uint256"},{"internalType":"uint256","name":"duration","type":"uint256"}],"name":"createBudget","outputs":[{"internalType":"uint256","name":"","type":"uint256"}],"stateMutability":"nonpayable","type":"function"},{"inputs":[{"internalType":"uint256","name":"budgetId","type":"uint256"}],"name":"deactivateBudget","outputs":[],"stateMutability":"nonpayable","type":"function"},{"inputs":[],"name":"finguardToken","outputs":[{"internalType":"contract FinGuardToken","name":"","type":"address"}],"stateMutability":"view","type":"function"},{"inputs":[{"internalType":"uint256","name":"budgetId","type":"uint256"}],"name":"getBudget","outputs":[{"internalType":"uint256","name":"id","type":"uint256"},{"internalType":"address","name":"user","type":"address"},{"internalType":"string","name":"category","type":"string"},{"internalType":"uint256","name":"allocatedAmount","type":"uint256"},{"internalType":"uint256","name":"spentAmount","type":"uint256"},{"internalType":"uint256","name":"startDate","type":"uint256"},{"internalType":"uint256","name":"endDate","type":"uint256"},{"internalType":"bool","name":"isActive","type":"bool"}],"stateMutability":"view","type":"function"},{"inputs":[{"internalType":"uint256","name":"budgetId","type":"uint256"}],"name":"getBudgetSpending","outputs":[{"internalType":"uint256[]","name":"amounts","type":"uint256[]"},{"internalType":"string[]","name":"descriptions","type":"string[]"},{"internalType":"uint256[]","name":"timestamps","type":"uint256[]"}],"stateMutability":"view","type":"function"},{"inputs":[{"internalType":"uint256","name":"budgetId","type":"uint256"}],"name":"getBudgetUtilization","outputs":[{"internalType":"uint256","name":"","type":"uint256"}],"stateMutability":"view","type":"function"},{"inputs":[{"internalType":"address","name":"user","type":"address"}],"name":"getUserBudgets","outputs":[{"internalType":"uint256[]","name":"","type":"uint256[]"}],"stateMutability":"view","type":"function"},{"inputs":[],"name":"nextBudgetId","outputs":[{"internalType":"uint256","name":"","type":"uint256"}],"stateMutability":"view","type":"function"},{"inputs":[],"name":"owner","outputs":[{"internalType":"address","name":"","type":"address"}],"stateMutability":"view","type":"function"},{"inputs":[{"internalType":"uint256","name":"budgetId","type":"uint256"},{"internalType":"uint256","name":"amount","type":"uint256"},{"internalType":"string","name":"description","type":"string"}],"name":"recordSpending","outputs":[],"stateMutability":"nonpayable","type":"function"},{"inputs":[],"name":"renounceOwnership","outputs":[],"stateMutability":"nonpayable","type":"function"},{"inputs":[{"internalType":"address","name":"newOwner","type":"address"}],"name":"transferOwnership","outputs":[],"stateMutability":"nonpayable","type":"function"},{"inputs":[{"internalType":"uint256","name":"budgetId","type":"uint256"},{"internalType":"uint256","name":"newAllocatedAmount","type":"uint256"}],"name":"updateBudgetAllocation","outputs":[],"stateMutability":"nonpayable","type":"function"},{"inputs":[{"internalType":"address","name":"","type":"address"},{"internalType":"uint256","name":"","type":"uint256"}],"name":"userBudgets","outputs":[{"internalType":"uint256","name":"","type":"uint256"}],"stateMutability":"view","type":"function"}],"evm":{"bytecode":{"linkReferences":{},"object":"608060405234801561001057600080fd5b5060405162001d6638038062001d66833981016040819052610031916100b2565b61003a33610062565b600180546001600160a01b0319166001600160a01b03929092169190911781556006556100e2565b600080546001600160a01b038381166001600160a01b0319831681178455604051919092169283917f8be0079c531659141344cd1fd0a4f28419497f9722a3daafe3b4186f6b6457e09190a35050565b6000602082840312156100c457600080fd5b81516001600160a01b03811681146100db57600080fd5b9392505050565b611c7480620000f26000396000f3fe608060405234801561001057600080fd5b50600436106101165760003560e01c80638aecdf62116100a2578063cb3b026511610071578063cb3b026514610275578063e07235d614610298578063f2fde38b146102ab578063fb6c06ac146102be578063fcd7e5a7146102d157600080fd5b80638aecdf62146102265780638da5cb5b14610239578063aa2c7d1d1461024a578063c3627ef61461025357600080fd5b806350a1438a116100e957806350a1438a146101b757806354370dc2146101ca57806369f0e05f146101ea578063715018a6146101fd578063815de3fe1461020557600080fd5b806322d639b21461011b5780632c79ea02146101505780632e4ea4c41461016557806336002b971461018c575b600080fd5b61012e6101293660046115f0565b6102e4565b6040805193151584526020840192909252908201526060015b60405180910390f35b61016361015e366004611647565b610592565b005b610178610173366004611669565b6106bf565b6040516101479897969594939291906116d2565b60015461019f906001600160a01b031681565b6040516001600160a01b039091168152602001610147565b6101636101c536600461172b565b610840565b6101dd6101d836600461177b565b610a7f565b60405161014791906117d1565b6101786101f8366004611669565b610aeb565b610163610bc3565b610218610213366004611669565b610bd7565b604051908152602001610147565b6102186102343660046117e4565b610d38565b6000546001600160a01b031661019f565b61021860065481565b610266610261366004611669565b610d69565b6040516101479392919061180e565b610288610283366004611647565b611041565b6040516101479493929190611893565b6102186102a63660046118c3565b611116565b6101636102b936600461177b565b611141565b6102186102cc366004611908565b6111ba565b6101636102df366004611669565b6113e8565b6001600160a01b038316600090815260036020908152604080832080548251818502810185019093528083528493849384939092909183018282801561034957602002820191906000526020600020905b815481526020019060010190808311610335575b5050505050905060005b81518110156105795760006002600084848151811061037457610374611966565b6020026020010151815260200190815260200160002060405180610100016040529081600082015481526020016001820160009054906101000a90046001600160a01b03166001600160a01b03166001600160a01b031681526020016002820180546103df9061197c565b80601f016020809104026020016040519081016040528092919081815260200182805461040b9061197c565b80156104585780601f1061042d57610100808354040283529160200191610458565b820191906000526020600020905b81548152906001019060200180831161043b57829003601f168201915b50505091835250506003820154602082015260048201546040820152600582015460608201526006820154608082015260079091015460ff16151560a09091015260e081015190915080156104fc5750876040516020016104b991906119b6565b6040516020818303038152906040528051906020012081604001516040516020016104e491906119b6565b60405160208183030381529060405280519060200120145b801561050c57508060a001514210155b801561051c57508060c001514211155b156105665760008160800151826060015161053791906119e8565b9050808811610553579051600196509094509250610589915050565b9051600096509094509250610589915050565b508061057181611a01565b915050610353565b5060016000196000935093509350505b93509350939050565b600082815260026020526040812080549091036105ca5760405162461bcd60e51b81526004016105c190611a1a565b60405180910390fd5b60018101546001600160a01b03163314806105ef57506000546001600160a01b031633145b61062c5760405162461bcd60e51b815260206004820152600e60248201526d139bdd08185d5d1a1bdc9a5e995960921b60448201526064016105c1565b6000821161064c5760405162461bcd60e51b81526004016105c190611a49565b60038101829055600781015460ff1615801561066b5750818160040154105b156106805760078101805460ff191660011790555b827fcf91367f884794ee3033ec73a082caea4fdeab2c5ff645406bd40c4314eee878836040516106b291815260200190565b60405180910390a2505050565b6000806060600080600080600080600260008b815260200190815260200160002060405180610100016040529081600082015481526020016001820160009054906101000a90046001600160a01b03166001600160a01b03166001600160a01b031681526020016002820180546107359061197c565b80601f01602080910402602001604051908101604052809291908181526020018280546107619061197c565b80156107ae5780601f10610783576101008083540402835291602001916107ae565b820191906000526020600020905b81548152906001019060200180831161079157829003601f168201915b50505050508152602001600382015481526020016004820154815260200160058201548152602001600682015481526020016007820160009054906101000a900460ff1615151515815250509050806000015181602001518260400151836060015184608001518560a001518660c001518760e001519850985098509850985098509850985050919395975091939597565b6000838152600260205260408120805490910361086f5760405162461bcd60e51b81526004016105c190611a1a565b600781015460ff166108ba5760405162461bcd60e51b8152602060048201526014602482015273427564676574206973206e6f742061637469766560601b60448201526064016105c1565b806006015442111561090e5760405162461bcd60e51b815260206004820152601760248201527f42756467657420706572696f642068617320656e64656400000000000000000060448201526064016105c1565b828160040160008282546109229190611a93565b909155505060008481526005602090815260408083208151608081018352888152808401888152928101878152426060830152825460018181018555938752949095208151600490950201938455915190830155915160028201906109879082611af5565b50606082015181600301555050837f405063e4c1398e69bd915049236ef5e0c02f4adef4abce4ce31211ba077e62db84846040516109c6929190611bb5565b60405180910390a2806003015481600401541115610a32576000816003015482600401546109f491906119e8565b9050847f29a8b5f0b76c21efab93aa687310d14a2166d3130ea90e840200e14e21d0863c82604051610a2891815260200190565b60405180910390a2505b8060030154816004015410610a795760078101805460ff1916905560405184907f1cf97ef5080c93006541c78344fbadf349718aac9a51fc4df30535586654534190600090a25b50505050565b6001600160a01b038116600090815260036020908152604091829020805483518184028101840190945280845260609392830182828015610adf57602002820191906000526020600020905b815481526020019060010190808311610acb575b50505050509050919050565b600260208190526000918252604090912080546001820154928201805491936001600160a01b03169291610b1e9061197c565b80601f0160208091040260200160405190810160405280929190818152602001828054610b4a9061197c565b8015610b975780601f10610b6c57610100808354040283529160200191610b97565b820191906000526020600020905b815481529060010190602001808311610b7a57829003601f168201915b505050600384015460048501546005860154600687015460079097015495969295919450925060ff1688565b610bcb611487565b610bd560006114e1565b565b60008181526002602081815260408084208151610100810183528154815260018201546001600160a01b031693810193909352928301805485949284019190610c1f9061197c565b80601f0160208091040260200160405190810160405280929190818152602001828054610c4b9061197c565b8015610c985780601f10610c6d57610100808354040283529160200191610c98565b820191906000526020600020905b815481529060010190602001808311610c7b57829003601f168201915b50505091835250506003820154602082015260048201546040820152600582015460608201526006820154608082015260079091015460ff16151560a0909101528051909150600003610cfd5760405162461bcd60e51b81526004016105c190611a1a565b8060600151600003610d125750600092915050565b60608101516080820151610d27906064611bd6565b610d319190611bed565b9392505050565b60036020528160005260406000208181548110610d5457600080fd5b90600052602060002001600091509150505481565b6060806060600060056000868152602001908152602001600020805480602002602001604051908101604052809291908181526020016000905b82821015610e8557838290600052602060002090600402016040518060800160405290816000820154815260200160018201548152602001600282018054610dea9061197c565b80601f0160208091040260200160405190810160405280929190818152602001828054610e169061197c565b8015610e635780601f10610e3857610100808354040283529160200191610e63565b820191906000526020600020905b815481529060010190602001808311610e4657829003601f168201915b5050505050815260200160038201548152505081526020019060010190610da3565b505082519293508291505067ffffffffffffffff811115610ea857610ea861154d565b604051908082528060200260200182016040528015610ed1578160200160208202803683370190505b5094508067ffffffffffffffff811115610eed57610eed61154d565b604051908082528060200260200182016040528015610f2057816020015b6060815260200190600190039081610f0b5790505b5093508067ffffffffffffffff811115610f3c57610f3c61154d565b604051908082528060200260200182016040528015610f65578160200160208202803683370190505b50925060005b8181101561103757828181518110610f8557610f85611966565b602002602001015160200151868281518110610fa357610fa3611966565b602002602001018181525050828181518110610fc157610fc1611966565b602002602001015160400151858281518110610fdf57610fdf611966565b6020026020010181905250828181518110610ffc57610ffc611966565b60200260200101516060015184828151811061101a5761101a611966565b60209081029190910101528061102f81611a01565b915050610f6b565b5050509193909250565b6005602052816000526040600020818154811061105d57600080fd5b90600052602060002090600402016000915091505080600001549080600101549080600201805461108d9061197c565b80601f01602080910402602001604051908101604052809291908181526020018280546110b99061197c565b80156111065780601f106110db57610100808354040283529160200191611106565b820191906000526020600020905b8154815290600101906020018083116110e957829003601f168201915b5050505050908060030154905084565b81516020818401810180516004825292820191850191909120919052805482908110610d5457600080fd5b611149611487565b6001600160a01b0381166111ae5760405162461bcd60e51b815260206004820152602660248201527f4f776e61626c653a206e6577206f776e657220697320746865207a65726f206160448201526564647265737360d01b60648201526084016105c1565b6111b7816114e1565b50565b60008083116111db5760405162461bcd60e51b81526004016105c190611a49565b600082116112365760405162461bcd60e51b815260206004820152602260248201527f4475726174696f6e206d7573742062652067726561746572207468616e207a65604482015261726f60f01b60648201526084016105c1565b600680546000918261124783611a01565b90915550905042600061125a8583611a93565b60408051610100810182528581526001600160a01b038b811660208084019182528385018d8152606085018d905260006080860181905260a086018a905260c08601889052600160e087018190528b825260029384905296902085518155925195830180546001600160a01b031916969094169590951790925592519394509092908201906112e99082611af5565b506060820151600382810191909155608083015160048084019190915560a0840151600584015560c0840151600684015560e0909301516007909201805460ff1916921515929092179091556001600160a01b038a166000908152602091825260408082208054600181018255908352929091209091018590555161136f9089906119b6565b908152604051908190036020908101822080546001810182556000918252919020018490556001600160a01b0389169084907f6fcff152ae54d536296a9d4415ba287f76346c0016c760bdd79c2f5a40d2bd04906113d4908b908b9088908890611c0f565b60405180910390a350909695505050505050565b600081815260026020526040812080549091036114175760405162461bcd60e51b81526004016105c190611a1a565b60018101546001600160a01b031633148061143c57506000546001600160a01b031633145b6114795760405162461bcd60e51b815260206004820152600e60248201526d139bdd08185d5d1a1bdc9a5e995960921b60448201526064016105c1565b600701805460ff1916905550565b6000546001600160a01b03163314610bd55760405162461bcd60e51b815260206004820181905260248201527f4f776e61626c653a2063616c6c6572206973206e6f7420746865206f776e657260448201526064016105c1565b600080546001600160a01b038381166001600160a01b0319831681178455604051919092169283917f8be0079c531659141344cd1fd0a4f28419497f9722a3daafe3b4186f6b6457e09190a35050565b80356001600160a01b038116811461154857600080fd5b919050565b634e487b7160e01b600052604160045260246000fd5b600082601f83011261157457600080fd5b813567ffffffffffffffff8082111561158f5761158f61154d565b604051601f8301601f19908116603f011681019082821181831017156115b7576115b761154d565b816040528381528660208588010111156115d057600080fd5b836020870160208301376000602085830101528094505050505092915050565b60008060006060848603121561160557600080fd5b61160e84611531565b9250602084013567ffffffffffffffff81111561162a57600080fd5b61163686828701611563565b925050604084013590509250925092565b6000806040838503121561165a57600080fd5b50508035926020909101359150565b60006020828403121561167b57600080fd5b5035919050565b60005b8381101561169d578181015183820152602001611685565b50506000910152565b600081518084526116be816020860160208601611682565b601f01601f19169290920160200192915050565b8881526001600160a01b0388166020820152610100604082018190526000906116fd8382018a6116a6565b60608401989098525050608081019490945260a084019290925260c0830152151560e0909101529392505050565b60008060006060848603121561174057600080fd5b8335925060208401359150604084013567ffffffffffffffff81111561176557600080fd5b61177186828701611563565b9150509250925092565b60006020828403121561178d57600080fd5b610d3182611531565b600081518084526020808501945080840160005b838110156117c6578151875295820195908201906001016117aa565b509495945050505050565b602081526000610d316020830184611796565b600080604083850312156117f757600080fd5b61180083611531565b946020939093013593505050565b6060815260006118216060830186611796565b6020838203818501528186518084528284019150828160051b85010183890160005b8381101561187157601f1987840301855261185f8383516116a6565b94860194925090850190600101611843565b505086810360408801526118858189611796565b9a9950505050505050505050565b8481528360208201526080604082015260006118b260808301856116a6565b905082606083015295945050505050565b600080604083850312156118d657600080fd5b823567ffffffffffffffff8111156118ed57600080fd5b6118f985828601611563565b95602094909401359450505050565b6000806000806080858703121561191e57600080fd5b61192785611531565b9350602085013567ffffffffffffffff81111561194357600080fd5b61194f87828801611563565b949794965050505060408301359260600135919050565b634e487b7160e01b600052603260045260246000fd5b600181811c9082168061199057607f821691505b6020821081036119b057634e487b7160e01b600052602260045260246000fd5b50919050565b600082516119c8818460208701611682565b9190910192915050565b634e487b7160e01b600052601160045260246000fd5b818103818111156119fb576119fb6119d2565b92915050565b600060018201611a1357611a136119d2565b5060010190565b602080825260159082015274109d5919d95d08191bd95cc81b9bdd08195e1a5cdd605a1b604082015260600190565b6020808252602a908201527f416c6c6f636174656420616d6f756e74206d7573742062652067726561746572604082015269207468616e207a65726f60b01b606082015260800190565b808201808211156119fb576119fb6119d2565b601f821115611af057600081815260208120601f850160051c81016020861015611acd5750805b601f850160051c820191505b81811015611aec57828155600101611ad9565b5050505b505050565b815167ffffffffffffffff811115611b0f57611b0f61154d565b611b2381611b1d845461197c565b84611aa6565b602080601f831160018114611b585760008415611b405750858301515b600019600386901b1c1916600185901b178555611aec565b600085815260208120601f198616915b82811015611b8757888601518255948401946001909101908401611b68565b5085821015611ba55787850151600019600388901b60f8161c191681555b5050505050600190811b01905550565b828152604060208201526000611bce60408301846116a6565b949350505050565b80820281158282048414176119fb576119fb6119d2565b600082611c0a57634e487b7160e01b600052601260045260246000fd5b500490565b608081526000611c2260808301876116a6565b602083019590955250604081019290925260609091015291905056fea26469706673582212205135dc54f360cd4dcf5571ae7574baadbdddca6e2dc2e634f1f7dfe4720140ec64736f6c63430008130033","opcodes":"PUSH1 0x80 PUSH1 0x40 MSTORE CALLVALUE DUP1 ISZERO PUSH2 0x10 JUMPI PUSH1 0x0 DUP1 REVERT JUMPDEST POP PUSH1 0x40 MLOAD PUSH3 0x1D66 CODESIZE SUB DUP1 PUSH3 0x1D66 DUP4 CODECOPY DUP2 ADD PUSH1 0x40 DUP2 SWAP1 MSTORE PUSH2 0x31 SWAP2 PUSH2 0xB2 JUMP JUMPDEST PUSH2 0x3A CALLER PUSH2 0x62 JUMP JUMPDEST PUSH1 0x1 DUP1 SLOAD PUSH1 0x1 PUSH1 0x1 PUSH1 0xA0 SHL SUB NOT AND PUSH1 0x1 PUSH1 0x1 PUSH1 0xA0 SHL SUB SWAP3 SWAP1 SWAP3 AND SWAP2 SWAP1 SWAP2 OR DUP2 SSTORE PUSH1 0x6 SSTORE PUSH2 0xE2 JUMP JUMPDEST PUSH1 0x0 DUP1 SLOAD PUSH1 0x1 PUSH1 0x1 PUSH1 0xA0 SHL SUB DUP4 DUP2 AND PUSH1 0x1 PUSH1 0x1 PUSH1 0xA0 SHL SUB NOT DUP4 AND DUP2 OR DUP5 SSTORE PUSH1 0x40 MLOAD SWAP2 SWAP1 SWAP3 AND SWAP3 DUP4 SWAP2 PUSH32 0x8BE0079C531659141344CD1FD0A4F28419497F9722A3DAAFE3B4186F6B6457E0 SWAP2 SWAP1 LOG3 POP POP JUMP JUMPDEST PUSH1 0x0 PUSH1 0x20 DUP3 DUP5 SUB SLT ISZERO PUSH2 0xC4 JUMPI PUSH1 0x0 DUP1 REVERT JUMPDEST DUP2 MLOAD PUSH1 0x1 PUSH1 0x1 PUSH1 0xA0 SHL SUB DUP2 AND DUP2 EQ PUSH2 0xDB JUMPI PUSH1 0x0 DUP1 REVERT JUMPDEST SWAP4 SWAP3 POP POP POP JUMP JUMPDEST PUSH2 0x1C74 DUP1 PUSH3 0xF2 PUSH1 0x0 CODECOPY PUSH1 0x0 RETURN INVALID PUSH1 0x80 PUSH1 0x40 MSTORE CALLVALUE DUP1 ISZERO PUSH2 0x10 JUMPI PUSH1 0x0 DUP1 REVERT JUMPDEST POP PUSH1 0x4 CALLDATASIZE LT PUSH2 0x116 JUMPI PUSH1 0x0 CALLDATALOAD PUSH1 0xE0 SHR DUP1 PUSH4 0x8AECDF62 GT PUSH2 0xA2 JUMPI DUP1 PUSH4 0xCB3B0265 GT PUSH2 0x71 JUMPI DUP1 PUSH4 0xCB3B0265 EQ PUSH2 0x275 JUMPI DUP1 PUSH4 0xE07235D6 EQ PUSH2 0x298 JUMPI DUP1 PUSH4 0xF2FDE38B EQ PUSH2 0x2AB JUMPI DUP1 PUSH4 0xFB6C06AC EQ PUSH2 0x2BE JUMPI DUP1 PUSH4 0xFCD7E5A7 EQ PUSH2 0x2D1 JUMPI PUSH1 0x0 DUP1 REVERT JUMPDEST DUP1 PUSH4 0x8AECDF62 EQ PUSH2 0x226 JUMPI DUP1 PUSH4 0x8DA5CB5B EQ PUSH2 0x239 JUMPI DUP1 PUSH4 0xAA2C7D1D EQ PUSH2 0x24A JUMPI DUP1 PUSH4 0xC3627EF6 EQ PUSH2 0x253 JUMPI PUSH1 0x0 DUP1 REVERT JUMPDEST DUP1 PUSH4 0x50A1438A GT PUSH2 0xE9 JUMPI DUP1 PUSH4 0x50A1438A EQ PUSH2 0x1B7 JUMPI DUP1 PUSH4 0x54370DC2 EQ PUSH2 0x1CA JUMPI DUP1 PUSH4 0x69F0E05F EQ PUSH2 0x1EA JUMPI DUP1 PUSH4 0x715018A6 EQ PUSH2 0x1FD JUMPI DUP1 PUSH4 0x815DE3FE EQ PUSH2 0x205 JUMPI PUSH1 0x0 DUP1 REVERT JUMPDEST DUP1 PUSH4 0x22D639B2 EQ PUSH2 0x11B JUMPI DUP1 PUSH4 0x2C79EA02 EQ PUSH2 0x150 JUMPI DUP1 PUSH4 0x2E4EA4C4 EQ PUSH2 0x165 JUMPI DUP1 PUSH4 0x36002B97 EQ PUSH2 0x18C JUMPI JUMPDEST PUSH1 0x0 DUP1 REVERT JUMPDEST PUSH2 0x12E PUSH2 0x129 CALLDATASIZE PUSH1 0x4 PUSH2 0x15F0 JUMP JUMPDEST PUSH2 0x2E4 JUMP JUMPDEST PUSH1 0x40 DUP1 MLOAD SWAP4 ISZERO ISZERO DUP5 MSTORE PUSH1 0x20 DUP5 ADD SWAP3 SWAP1 SWAP3 MSTORE SWAP1 DUP3 ADD MSTORE PUSH1 0x60 ADD JUMPDEST PUSH1 0x40 MLOAD DUP1 SWAP2 SUB SWAP1 RETURN JUMPDEST PUSH2 0x163 PUSH2 0x15E CALLDATASIZE PUSH1 0x4 PUSH2 0x1647 JUMP JUMPDEST PUSH2 0x592 JUMP JUMPDEST STOP JUMPDEST PUSH2 0x178 PUSH2 0x173 CALLDATASIZE PUSH1 0x4 PUSH2 0x1669 JUMP JUMPDEST PUSH2 0x6BF JUMP JUMPDEST PUSH1 0x40 MLOAD PUSH2 0x147 SWAP9 SWAP8 SWAP7 SWAP6 SWAP5 SWAP4 SWAP3 SWAP2 SWAP1 PUSH2 0x16D2 JUMP JUMPDEST PUSH1 0x1 SLOAD PUSH2 0x19F SWAP1 PUSH1 0x1 PUSH1 0x1 PUSH1 0xA0 SHL SUB AND DUP2 JUMP JUMPDEST PUSH1 0x40 MLOAD PUSH1 0x1 PUSH1 0x1 PUSH1 0xA0 SHL SUB SWAP1 SWAP2 AND DUP2 MSTORE PUSH1 0x20 ADD PUSH2 0x147 JUMP JUMPDEST PUSH2 0x163 PUSH2 0x1C5 CALLDATASIZE PUSH1 0x4 PUSH2 0x172B JUMP JUMPDEST PUSH2 0x840 JUMP JUMPDEST PUSH2 0x1DD PUSH2 0x1D8 CALLDATASIZE PUSH1 0x4 PUSH2 0x177B JUMP JUMPDEST PUSH2 0xA7F JUMP JUMPDEST PUSH1 0x40 MLOAD PUSH2 0x147 SWAP2 SWAP1 PUSH2 0x17D1 JUMP JUMPDEST PUSH2 0x178 PUSH2 0x1F8 CALLDATASIZE PUSH1 0x4 PUSH2 0x1669 JUMP JUMPDEST PUSH2 0xAEB JUMP JUMPDEST PUSH2 0x163 PUSH2 0xBC3 JUMP JUMPDEST PUSH2 0x218 PUSH2 0x213 CALLDATASIZE PUSH1 0x4 PUSH2 0x1669 JUMP JUMPDEST PUSH2 0xBD7 JUMP JUMPDEST PUSH1 0x40 MLOAD SWAP1 DUP2 MSTORE PUSH1 0x20 ADD PUSH2 0x147 JUMP JUMPDEST PUSH2 0x218 PUSH2 0x234 CALLDATASIZE PUSH1 0x4 PUSH2 0x17E4 JUMP JUMPDEST PUSH2 0xD38 JUMP JUMPDEST PUSH1 0x0 SLOAD PUSH1 0x1 PUSH1 0x1 PUSH1 0xA0 SHL SUB AND PUSH2 0x19F JUMP JUMPDEST PUSH2 0x218 PUSH1 0x6 SLOAD DUP2 JUMP JUMPDEST PUSH2 0x266 PUSH2 0x261 CALLDATASIZE PUSH1 0x4 PUSH2 0x1669 JUMP JUMPDEST PUSH2 0xD69 JUMP JUMPDEST PUSH1 0x40 MLOAD PUSH2 0x147 SWAP4 SWAP3 SWAP2 SWAP1 PUSH2 0x180E JUMP JUMPDEST PUSH2 0x288 PUSH2 0x283 CALLDATASIZE PUSH1 0x4 PUSH2 0x1647 JUMP JUMPDEST PUSH2 0x1041 JUMP JUMPDEST PUSH1 0x40 MLOAD PUSH2 0x147 SWAP5 SWAP4 SWAP3 SWAP2 SWAP1 PUSH2 0x1893 JUMP JUMPDEST PUSH2 0x218 PUSH2 0x2A6 CALLDATASIZE PUSH1 0x4 PUSH2 0x18C3 JUMP JUMPDEST PUSH2 0x1116 JUMP JUMPDEST PUSH2 0x163 PUSH2 0x2B9 CALLDATASIZE PUSH1 0x4 PUSH2 0x177B JUMP JUMPDEST PUSH2 0x1141 JUMP JUMPDEST PUSH2 0x218 PUSH2 0x2CC CALLDATASIZE PUSH1 0x4 PUSH2 0x1908 JUMP JUMPDEST PUSH2 0x11BA JUMP JUMPDEST PUSH2 0x163 PUSH2 0x2DF CALLDATASIZE PUSH1 0x4 PUSH2 0x1669 JUMP JUMPDEST PUSH2 0x13E8 JUMP JUMPDEST PUSH1 0x1 PUSH1 0x1 PUSH1 0xA0 SHL SUB DUP4 AND PUSH1 0x0 SWAP1 DUP2 MSTORE PUSH1 0x3 PUSH1 0x20 SWAP1 DUP2 MSTORE PUSH1 0x40 DUP1 DUP4 KECCAK256 DUP1 SLOAD DUP3 MLOAD DUP2 DUP6 MUL DUP2 ADD DUP6 ADD SWAP1 SWAP4 MSTORE DUP1 DUP4 MSTORE DUP5 SWAP4 DUP5 SWAP4 DUP5 SWAP4 SWAP1 SWAP3 SWAP1 SWAP2 DUP4 ADD DUP3 DUP3 DUP1 ISZERO PUSH2 0x349 JUMPI PUSH1 0x20 MUL DUP3 ADD SWAP2 SWAP1 PUSH1 0x0 MSTORE PUSH1 0x20 PUSH1 0x0 KECCAK256 SWAP1 JUMPDEST DUP2 SLOAD DUP2 MSTORE PUSH1 0x20 ADD SWAP1 PUSH1 0x1 ADD SWAP1 DUP1 DUP4 GT PUSH2 0x335 JUMPI JUMPDEST POP POP POP POP POP SWAP1 POP PUSH1 0x0 JUMPDEST DUP2 MLOAD DUP2 LT ISZERO PUSH2 0x579 JUMPI PUSH1 0x0 PUSH1 0x2 PUSH1 0x0 DUP5 DUP5 DUP2 MLOAD DUP2 LT PUSH2 0x374 JUMPI PUSH2 0x374 PUSH2 0x1966 JUMP JUMPDEST PUSH1 0x20 MUL PUSH1 0x20 ADD ADD MLOAD DUP2 MSTORE PUSH1 0x20 ADD SWAP1 DUP2 MSTORE PUSH1 0x20 ADD PUSH1 0x0 KECCAK256 PUSH1 0x40 MLOAD DUP1 PUSH2 0x100 ADD PUSH1 0x40 MSTORE SWAP1 DUP2 PUSH1 0x0 DUP3 ADD SLOAD DUP2 MSTORE PUSH1 0x20 ADD PUSH1 0x1 DUP3 ADD PUSH1 0x0 SWAP1 SLOAD SWAP1 PUSH2 0x100 EXP SWAP1 DIV PUSH1 0x1 PUSH1 0x1 PUSH1 0xA0 SHL SUB AND PUSH1 0x1 PUSH1 0x1 PUSH1 0xA0 SHL SUB AND PUSH1 0x1 PUSH1 0x1 PUSH1 0xA0 SHL SUB AND DUP2 MSTORE PUSH1 0x20 ADD PUSH1 0x2 DUP3 ADD DUP1 SLOAD PUSH2 0x3DF SWAP1 PUSH2 0x197C JUMP JUMPDEST DUP1 PUSH1 0x1F ADD PUSH1 0x20 DUP1 SWAP2 DIV MUL PUSH1 0x20 ADD PUSH1 0x40 MLOAD SWAP1 DUP2 ADD PUSH1 0x40 MSTORE DUP1 SWAP3 SWAP2 SWAP1 DUP2 DUP2 MSTORE PUSH1 0x20 ADD DUP3 DUP1 SLOAD PUSH2 0x40B SWAP1 PUSH2 0x197C JUMP JUMPDEST DUP1 ISZERO PUSH2 0x458 JUMPI DUP1 PUSH1 0x1F LT PUSH2 0x42D JUMPI PUSH2 0x100 DUP1 DUP4 SLOAD DIV MUL DUP4 MSTORE SWAP2 PUSH1 0x20 ADD SWAP2 PUSH2 0x458 JUMP JUMPDEST DUP3 ADD SWAP2 SWAP1 PUSH1 0x0 MSTORE PUSH1 0x20 PUSH1 0x0 KECCAK256 SWAP1 JUMPDEST DUP2 SLOAD DUP2 MSTORE SWAP1 PUSH1 0x1 ADD SWAP1 PUSH1 0x20 ADD DUP1 DUP4 GT PUSH2 0x43B JUMPI DUP3 SWAP1 SUB PUSH1 0x1F AND DUP3 ADD SWAP2 JUMPDEST POP POP POP SWAP2 DUP4 MSTORE POP POP PUSH1 0x3 DUP3 ADD SLOAD PUSH1 0x20 DUP3 ADD MSTORE PUSH1 0x4 DUP3 ADD SLOAD PUSH1 0x40 DUP3 ADD MSTORE PUSH1 0x5 DUP3 ADD SLOAD PUSH1 0x60 DUP3 ADD MSTORE PUSH1 0x6 DUP3 ADD SLOAD PUSH1 0x80 DUP3 ADD MSTORE PUSH1 0x7 SWAP1 SWAP2 ADD SLOAD PUSH1 0xFF AND ISZERO ISZERO PUSH1 0xA0 SWAP1 SWAP2 ADD MSTORE PUSH1 0xE0 DUP2 ADD MLOAD SWAP1 SWAP2 POP DUP1 ISZERO PUSH2 0x4FC JUMPI POP DUP8 PUSH1 0x40 MLOAD PUSH1 0x20 ADD PUSH2 0x4B9 SWAP2 SWAP1 PUSH2 0x19B6 JUMP JUMPDEST PUSH1 0x40 MLOAD PUSH1 0x20 DUP2 DUP4 SUB SUB DUP2 MSTORE SWAP1 PUSH1 0x40 MSTORE DUP1 MLOAD SWAP1 PUSH1 0x20 ADD KECCAK256 DUP2 PUSH1 0x40 ADD MLOAD PUSH1 0x40 MLOAD PUSH1 0x20 ADD PUSH2 0x4E4 SWAP2 SWAP1 PUSH2 0x19B6 JUMP JUMPDEST PUSH1 0x40 MLOAD PUSH1 0x20 DUP2 DUP4 SUB SUB DUP2 MSTORE SWAP1 PUSH1 0x40 MSTORE DUP1 MLOAD SWAP1 PUSH1 0x20 ADD KECCAK256 EQ JUMPDEST DUP1 ISZERO PUSH2 0x50C JUMPI POP DUP1 PUSH1 0xA0 ADD MLOAD TIMESTAMP LT ISZERO JUMPDEST DUP1 ISZERO PUSH2 0x51C JUMPI POP DUP1 PUSH1 0xC0 ADD MLOAD TIMESTAMP GT ISZERO JUMPDEST ISZERO PUSH2 0x566 JUMPI PUSH1 0x0 DUP2 PUSH1 0x80 ADD MLOAD DUP3 PUSH1 0x60 ADD MLOAD PUSH2 0x537 SWAP2 SWAP1 PUSH2 0x19E8 JUMP JUMPDEST SWAP1 POP DUP1 DUP9 GT PUSH2 0x553 JUMPI SWAP1 MLOAD PUSH1 0x1 SWAP7 POP SWAP1 SWAP5 POP SWAP3 POP PUSH2 0x589 SWAP2 POP POP JUMP JUMPDEST SWAP1 MLOAD PUSH1 0x0 SWAP7 POP SWAP1 SWAP5 POP SWAP3 POP PUSH2 0x589 SWAP2 POP POP JUMP JUMPDEST POP DUP1 PUSH2 0x571 DUP2 PUSH2 0x1A01 JUMP JUMPDEST SWAP2 POP POP PUSH2 0x353 JUMP JUMPDEST POP PUSH1 0x1 PUSH1 0x0 NOT PUSH1 0x0 SWAP4 POP SWAP4 POP SWAP4 POP POP JUMPDEST SWAP4 POP SWAP4 POP SWAP4 SWAP1 POP JUMP JUMPDEST PUSH1 0x0 DUP3 DUP2 MSTORE PUSH1 0x2 PUSH1 0x20 MSTORE PUSH1 0x40 DUP2 KECCAK256 DUP1 SLOAD SWAP1 SWAP2 SUB PUSH2 0x5CA JUMPI PUSH1 0x40 MLOAD PUSH3 0x461BCD PUSH1 0xE5 SHL DUP2 MSTORE PUSH1 0x4 ADD PUSH2 0x5C1 SWAP1 PUSH2 0x1A1A JUMP JUMPDEST PUSH1 0x40 MLOAD DUP1 SWAP2 SUB SWAP1 REVERT JUMPDEST PUSH1 0x1 DUP2 ADD SLOAD PUSH1 0x1 PUSH1 0x1 PUSH1 0xA0 SHL SUB AND CALLER EQ DUP1 PUSH2 0x5EF JUMPI POP PUSH1 0x0 SLOAD PUSH1 0x1 PUSH1 0x1 PUSH1 0xA0 SHL SUB AND CALLER EQ JUMPDEST PUSH2 0x62C JUMPI PUSH1 0x40 MLOAD PUSH3 0x461BCD PUSH1 0xE5 SHL DUP2 MSTORE PUSH1 0x20 PUSH1 0x4 DUP3 ADD MSTORE PUSH1 0xE PUSH1 0x24 DUP3 ADD MSTORE PUSH14 0x139BDD08185D5D1A1BDC9A5E9959 PUSH1 0x92 SHL PUSH1 0x44 DUP3 ADD MSTORE PUSH1 0x64 ADD PUSH2 0x5C1 JUMP JUMPDEST PUSH1 0x0 DUP3 GT PUSH2 0x64C JUMPI PUSH1 0x40 MLOAD PUSH3 0x461BCD PUSH1 0xE5 SHL DUP2 MSTORE PUSH1 0x4 ADD PUSH2 0x5C1 SWAP1 PUSH2 0x1A49 JUMP JUMPDEST PUSH1 0x3 DUP2 ADD DUP3 SWAP1 SSTORE PUSH1 0x7 DUP2 ADD SLOAD PUSH1 0xFF AND ISZERO DUP1 ISZERO PUSH2 0x66B JUMPI POP DUP2 DUP2 PUSH1 0x4 ADD SLOAD LT JUMPDEST ISZERO PUSH2 0x680 JUMPI PUSH1 0x7 DUP2 ADD DUP1 SLOAD PUSH1 0xFF NOT AND PUSH1 0x1 OR SWAP1 SSTORE JUMPDEST DUP3 PUSH32 0xCF91367F884794EE3033EC73A082CAEA4FDEAB2C5FF645406BD40C4314EEE878 DUP4 PUSH1 0x40 MLOAD PUSH2 0x6B2 SWAP2 DUP2 MSTORE PUSH1 0x20 ADD SWAP1 JUMP JUMPDEST PUSH1 0x40 MLOAD DUP1 SWAP2 SUB SWAP1 LOG2 POP POP POP JUMP JUMPDEST PUSH1 0x0 DUP1 PUSH1 0x60 PUSH1 0x0 DUP1 PUSH1 0x0 DUP1 PUSH1 0x0 DUP1 PUSH1 0x2 PUSH1 0x0 DUP12 DUP2 MSTORE PUSH1 0x20 ADD SWAP1 DUP2 MSTORE PUSH1 0x20 ADD PUSH1 0x0 KECCAK256 PUSH1 0x40 MLOAD DUP1 PUSH2 0x100 ADD PUSH1 0x40 MSTORE SWAP1 DUP2 PUSH1 0x0 DUP3 ADD SLOAD DUP2 MSTORE PUSH1 0x20 ADD PUSH1 0x1 DUP3 ADD PUSH1 0x0 SWAP1 SLOAD SWAP1 PUSH2 0x100 EXP SWAP1 DIV PUSH1 0x1 PUSH1 0x1 PUSH1 0xA0 SHL SUB AND PUSH1 0x1 PUSH1 0x1 PUSH1 0xA0 SHL SUB AND PUSH1 0x1 PUSH1 0x1 PUSH1 0xA0 SHL SUB AND DUP2 MSTORE PUSH1 0x20 ADD PUSH1 0x2 DUP3 ADD DUP1 SLOAD PUSH2 0x735 SWAP1 PUSH2 0x197C JUMP JUMPDEST DUP1 PUSH1 0x1F ADD PUSH1 0x20 DUP1 SWAP2 DIV MUL PUSH1 0x20 ADD PUSH1 0x40 MLOAD SWAP1 DUP2 ADD PUSH1 0x40 MSTORE DUP1 SWAP3 SWAP2 SWAP1 DUP2 DUP2 MSTORE PUSH1 0x20 ADD DUP3 DUP1 SLOAD PUSH2 0x761 SWAP1 PUSH2 0x197C JUMP JUMPDEST DUP1 ISZERO PUSH2 0x7AE JUMPI DUP1 PUSH1 0x1F LT PUSH2 0x783 JUMPI PUSH2 0x100 DUP1 DUP4 SLOAD DIV MUL DUP4 MSTORE SWAP2 PUSH1 0x20 ADD SWAP2 PUSH2 0x7AE JUMP JUMPDEST DUP3 ADD SWAP2 SWAP1 PUSH1 0x0 MSTORE PUSH1 0x20 PUSH1 0x0 KECCAK256 SWAP1 JUMPDEST DUP2 SLOAD DUP2 MSTORE SWAP1 PUSH1 0x1 ADD SWAP1 PUSH1 0x20 ADD DUP1 DUP4 GT PUSH2 0x791 JUMPI DUP3 SWAP1 SUB PUSH1 0x1F AND DUP3 ADD SWAP2 JUMPDEST POP POP POP POP POP DUP2 MSTORE PUSH1 0x20 ADD PUSH1 0x3 DUP3 ADD SLOAD DUP2 MSTORE PUSH1 0x20 ADD PUSH1 0x4 DUP3 ADD SLOAD DUP2 MSTORE PUSH1 0x20 ADD PUSH1 0x5 DUP3 ADD SLOAD DUP2 MSTORE PUSH1 0x20 ADD PUSH1 0x6 DUP3 ADD SLOAD DUP2 MSTORE PUSH1 0x20 ADD PUSH1 0x7 DUP3 ADD PUSH1 0x0 SWAP1 SLOAD SWAP1 PUSH2 0x100 EXP SWAP1 DIV PUSH1 0xFF AND ISZERO ISZERO ISZERO ISZERO DUP2 MSTORE POP POP SWAP1 POP DUP1 PUSH1 0x0 ADD MLOAD DUP2 PUSH1 0x20 ADD MLOAD DUP3 PUSH1 0x40 ADD MLOAD DUP4 PUSH1 0x60 ADD MLOAD DUP5 PUSH1 0x80 ADD MLOAD DUP6 PUSH1 0xA0 ADD MLOAD DUP7 PUSH1 0xC0 ADD MLOAD DUP8 PUSH1 0xE0 ADD MLOAD SWAP9 POP SWAP9 POP SWAP9 POP SWAP9 POP SWAP9 POP SWAP9 POP SWAP9 POP SWAP9 POP POP SWAP2 SWAP4 SWAP6 SWAP8 POP SWAP2 SWAP4 SWAP6 SWAP8 JUMP JUMPDEST PUSH1 0x0 DUP4 DUP2 MSTORE PUSH1 0x2 PUSH1 0x20 MSTORE PUSH1 0x40 DUP2 KECCAK256 DUP1 SLOAD SWAP1 SWAP2 SUB PUSH2 0x86F JUMPI PUSH1 0x40 MLOAD PUSH3 0x461BCD PUSH1 0xE5 SHL DUP2 MSTORE PUSH1 0x4 ADD PUSH2 0x5C1 SWAP1 PUSH2 0x1A1A JUMP JUMPDEST PUSH1 0x7 DUP2 ADD SLOAD PUSH1 0xFF AND PUSH2 0x8BA JUMPI PUSH1 0x40 MLOAD PUSH3 0x461BCD PUSH1 0xE5 SHL DUP2 MSTORE PUSH1 0x20 PUSH1 0x4 DUP3 ADD MSTORE PUSH1 0x14 PUSH1 0x24 DUP3 ADD MSTORE PUSH20 0x427564676574206973206E6F7420616374697665 PUSH1 0x60 SHL PUSH1 0x44 DUP3 ADD MSTORE PUSH1 0x64 ADD PUSH2 0x5C1 JUMP JUMPDEST DUP1 PUSH1 0x6 ADD SLOAD TIMESTAMP GT ISZERO PUSH2 0x90E JUMPI PUSH1 0x40 MLOAD PUSH3 0x461BCD PUSH1 0xE5 SHL DUP2 MSTORE PUSH1 0x20 PUSH1 0x4 DUP3 ADD MSTORE PUSH1 0x17 PUSH1 0x24 DUP3 ADD MSTORE PUSH32 0x42756467657420706572696F642068617320656E646564000000000000000000 PUSH1 0x44 DUP3 ADD MSTORE PUSH1 0x64 ADD PUSH2 0x5C1 JUMP JUMPDEST DUP3 DUP2 PUSH1 0x4 ADD PUSH1 0x0 DUP3 DUP3 SLOAD PUSH2 0x922 SWAP2 SWAP1 PUSH2 0x1A93 JUMP JUMPDEST SWAP1 SWAP2 SSTORE POP POP PUSH1 0x0 DUP5 DUP2 MSTORE PUSH1 0x5 PUSH1 0x20 SWAP1 DUP2 MSTORE PUSH1 0x40 DUP1 DUP4 KECCAK256 DUP2 MLOAD PUSH1 0x80 DUP2 ADD DUP4 MSTORE DUP9 DUP2 MSTORE DUP1 DUP5 ADD DUP9 DUP2 MSTORE SWAP3 DUP2 ADD DUP8 DUP2 MSTORE TIMESTAMP PUSH1 0x60 DUP4 ADD MSTORE DUP3 SLOAD PUSH1 0x1 DUP2 DUP2 ADD DUP6 SSTORE SWAP4 DUP8 MSTORE SWAP5 SWAP1 SWAP6 KECCAK256 DUP2 MLOAD PUSH1 0x4 SWAP1 SWAP6 MUL ADD SWAP4 DUP5 SSTORE SWAP2 MLOAD SWAP1 DUP4 ADD SSTORE SWAP2 MLOAD PUSH1 0x2 DUP3 ADD SWAP1 PUSH2 0x987 SWAP1 DUP3 PUSH2 0x1AF5 JUMP JUMPDEST POP PUSH1 0x60 DUP3 ADD MLOAD DUP2 PUSH1 0x3 ADD SSTORE POP POP DUP4 PUSH32 0x405063E4C1398E69BD915049236EF5E0C02F4ADEF4ABCE4CE31211BA077E62DB DUP5 DUP5 PUSH1 0x40 MLOAD PUSH2 0x9C6 SWAP3 SWAP2 SWAP1 PUSH2 0x1BB5 JUMP JUMPDEST PUSH1 0x40 MLOAD DUP1 SWAP2 SUB SWAP1 LOG2 DUP1 PUSH1 0x3 ADD SLOAD DUP2 PUSH1 0x4 ADD SLOAD GT ISZERO PUSH2 0xA32 JUMPI PUSH1 0x0 DUP2 PUSH1 0x3 ADD SLOAD DUP3 PUSH1 0x4 ADD SLOAD PUSH2 0x9F4 SWAP2 SWAP1 PUSH2 0x19E8 JUMP JUMPDEST SWAP1 POP DUP5 PUSH32 0x29A8B5F0B76C21EFAB93AA687310D14A2166D3130EA90E840200E14E21D0863C DUP3 PUSH1 0x40 MLOAD PUSH2 0xA28 SWAP2 DUP2 MSTORE PUSH1 0x20 ADD SWAP1 JUMP JUMPDEST PUSH1 0x40 MLOAD DUP1 SWAP2 SUB SWAP1 LOG2 POP JUMPDEST DUP1 PUSH1 0x3 ADD SLOAD DUP2 PUSH1 0x4 ADD SLOAD LT PUSH2 0xA79 JUMPI PUSH1 0x7 DUP2 ADD DUP1 SLOAD PUSH1 0xFF NOT AND SWAP1 SSTORE PUSH1 0x40 MLOAD DUP5 SWAP1 PUSH32 0x1CF97EF5080C93006541C78344FBADF349718AAC9A51FC4DF305355866545341 SWAP1 PUSH1 0x0 SWAP1 LOG2 JUMPDEST POP POP POP POP JUMP JUMPDEST PUSH1 0x1 PUSH1 0x1 PUSH1 0xA0 SHL SUB DUP2 AND PUSH1 0x0 SWAP1 DUP2 MSTORE PUSH1 0x3 PUSH1 0x20 SWAP1 DUP2 MSTORE PUSH1 0x40 SWAP2 DUP3 SWAP1 KECCAK256 DUP1 SLOAD DUP4 MLOAD DUP2 DUP5 MUL DUP2 ADD DUP5 ADD SWAP1 SWAP5 MSTORE DUP1 DUP5 MSTORE PUSH1 0x60 SWAP4 SWAP3 DUP4 ADD DUP3 DUP3 DUP1 ISZERO PUSH2 0xADF JUMPI PUSH1 0x20 MUL DUP3 ADD SWAP2 SWAP1 PUSH1 0x0 MSTORE PUSH1 0x20 PUSH1 0x0 KECCAK256 SWAP1 JUMPDEST DUP2 SLOAD DUP2 MSTORE PUSH1 0x20 ADD SWAP1 PUSH1 0x1 ADD SWAP1 DUP1 DUP4 GT PUSH2 0xACB JUMPI JUMPDEST POP POP POP POP POP SWAP1 POP SWAP2 SWAP1 POP JUMP JUMPDEST PUSH1 0x2 PUSH1 0x20 DUP2 SWAP1 MSTORE PUSH1 0x0 SWAP2 DUP3 MSTORE PUSH1 0x40 SWAP1 SWAP2 KECCAK256 DUP1 SLOAD PUSH1 0x1 DUP3 ADD SLOAD SWAP3 DUP3 ADD DUP1 SLOAD SWAP2 SWAP4 PUSH1 0x1 PUSH1 0x1 PUSH1 0xA0 SHL SUB AND SWAP3 SWAP2 PUSH2 0xB1E SWAP1 PUSH2 0x197C JUMP JUMPDEST DUP1 PUSH1 0x1F ADD PUSH1 0x20 DUP1 SWAP2 DIV MUL PUSH1 0x20 ADD PUSH1 0x40 MLOAD SWAP1 DUP2 ADD PUSH1 0x40 MSTORE DUP1 SWAP3 SWAP2 SWAP1 DUP2 DUP2 MSTORE PUSH1 0x20 ADD DUP3 DUP1 SLOAD PUSH2 0xB4A SWAP1 PUSH2 0x197C JUMP JUMPDEST DUP1 ISZERO PUSH2 0xB97 JUMPI DUP1 PUSH1 0x1F LT PUSH2 0xB6C JUMPI PUSH2 0x100 DUP1 DUP4 SLOAD DIV MUL DUP4 MSTORE SWAP2 PUSH1 0x20 ADD SWAP2 PUSH2 0xB97 JUMP JUMPDEST DUP3 ADD SWAP2 SWAP1 PUSH1 0x0 MSTORE PUSH1 0x20 PUSH1 0x0 KECCAK256 SWAP1 JUMPDEST DUP2 SLOAD DUP2 MSTORE SWAP1 PUSH1 0x1 ADD SWAP1 PUSH1 0x20 ADD DUP1 DUP4 GT PUSH2 0xB7A JUMPI DUP3 SWAP1 SUB PUSH1 0x1F AND DUP3 ADD SWAP2 JUMPDEST POP POP POP PUSH1 0x3 DUP5 ADD SLOAD PUSH1 0x4 DUP6 ADD SLOAD PUSH1 0x5 DUP7 ADD SLOAD PUSH1 0x6 DUP8 ADD SLOAD PUSH1 0x7 SWAP1 SWAP8 ADD SLOAD SWAP6 SWAP7 SWAP3 SWAP6 SWAP2 SWAP5 POP SWAP3 POP PUSH1 0xFF AND DUP9 JUMP JUMPDEST PUSH2 0xBCB PUSH2 0x1487 JUMP JUMPDEST PUSH2 0xBD5 PUSH1 0x0 PUSH2 0x14E1 JUMP JUMPDEST JUMP JUMPDEST PUSH1 0x0 DUP2 DUP2 MSTORE PUSH1 0x2 PUSH1 0x20 DUP2 DUP2 MSTORE PUSH1 0x40 DUP1 DUP5 KECCAK256 DUP2 MLOAD PUSH2 0x100 DUP2 ADD DUP4 MSTORE DUP2 SLOAD DUP2 MSTORE PUSH1 0x1 DUP3 ADD SLOAD PUSH1 0x1 PUSH1 0x1 PUSH1 0xA0 SHL SUB AND SWAP4 DUP2 ADD SWAP4 SWAP1 SWAP4 MSTORE SWAP3 DUP4 ADD DUP1 SLOAD DUP6 SWAP5 SWAP3 DUP5 ADD SWAP2 SWAP1 PUSH2 0xC1F SWAP1 PUSH2 0x197C JUMP JUMPDEST DUP1 PUSH1 0x1F ADD PUSH1 0x20 DUP1 SWAP2 DIV MUL PUSH1 0x20 ADD PUSH1 0x40 MLOAD SWAP1 DUP2 ADD PUSH1 0x40 MSTORE DUP1 SWAP3 SWAP2 SWAP1 DUP2 DUP2 MSTORE PUSH1 0x20 ADD DUP3 DUP1 SLOAD PUSH2 0xC4B SWAP1 PUSH2 0x197C JUMP JUMPDEST DUP1 ISZERO PUSH2 0xC98 JUMPI DUP1 PUSH1 0x1F LT PUSH2 0xC6D JUMPI PUSH2 0x100 DUP1 DUP4 SLOAD DIV MUL DUP4 MSTORE SWAP2 PUSH1 0x20 ADD SWAP2 PUSH2 0xC98 JUMP JUMPDEST DUP3 ADD SWAP2 SWAP1 PUSH1 0x0 MSTORE PUSH1 0x20 PUSH1 0x0 KECCAK256 SWAP1 JUMPDEST DUP2 SLOAD DUP2 MSTORE SWAP1 PUSH1 0x1 ADD SWAP1 PUSH1 0x20 ADD DUP1 DUP4 GT PUSH2 0xC7B JUMPI DUP3 SWAP1 SUB PUSH1 0x1F AND DUP3 ADD SWAP2 JUMPDEST POP POP POP SWAP2 DUP4 MSTORE POP POP PUSH1 0x3 DUP3 ADD SLOAD PUSH1 0x20 DUP3 ADD MSTORE PUSH1 0x4 DUP3 ADD SLOAD PUSH1 0x40 DUP3 ADD MSTORE PUSH1 0x5 DUP3 ADD SLOAD PUSH1 0x60 DUP3 ADD MSTORE PUSH1 0x6 DUP3 ADD SLOAD PUSH1 0x80 DUP3 ADD MSTORE PUSH1 0x7 SWAP1 SWAP2 ADD SLOAD PUSH1 0xFF AND ISZERO ISZERO PUSH1 0xA0 SWAP1 SWAP2 ADD MSTORE DUP1 MLOAD SWAP1 SWAP2 POP PUSH1 0x0 SUB PUSH2 0xCFD JUMPI PUSH1 0x40 MLOAD PUSH3 0x461BCD PUSH1 0xE5 SHL DUP2 MSTORE PUSH1 0x4 ADD PUSH2 0x5C1 SWAP1 PUSH2 0x1A1A JUMP JUMPDEST DUP1 PUSH1 0x60 ADD MLOAD PUSH1 0x0 SUB PUSH2 0xD12 JUMPI POP PUSH1 0x0 SWAP3 SWAP2 POP POP JUMP JUMPDEST PUSH1 0x60 DUP2 ADD MLOAD PUSH1 0x80 DUP3 ADD MLOAD PUSH2 0xD27 SWAP1 PUSH1 0x64 PUSH2 0x1BD6 JUMP JUMPDEST PUSH2 0xD31 SWAP2 SWAP1 PUSH2 0x1BED JUMP JUMPDEST SWAP4 SWAP3 POP POP POP JUMP JUMPDEST PUSH1 0x3 PUSH1 0x20 MSTORE DUP2 PUSH1 0x0 MSTORE PUSH1 0x40 PUSH1 0x0 KECCAK256 DUP2 DUP2 SLOAD DUP2 LT PUSH2 0xD54 JUMPI PUSH1 0x0 DUP1 REVERT JUMPDEST SWAP1 PUSH1 0x0 MSTORE PUSH1 0x20 PUSH1 0x0 KECCAK256 ADD PUSH1 0x0 SWAP2 POP SWAP2 POP POP SLOAD DUP2 JUMP JUMPDEST PUSH1 0x60 DUP1 PUSH1 0x60 PUSH1 0x0 PUSH1 0x5 PUSH1 0x0 DUP7 DUP2 MSTORE PUSH1 0x20 ADD SWAP1 DUP2 MSTORE PUSH1 0x20 ADD PUSH1 0x0 KECCAK256 DUP1 SLOAD DUP1 PUSH1 0x20 MUL PUSH1 0x20 ADD PUSH1 0x40 MLOAD SWAP1 DUP2 ADD PUSH1 0x40 MSTORE DUP1 SWAP3 SWAP2 SWAP1 DUP2 DUP2 MSTORE PUSH1 0x20 ADD PUSH1 0x0 SWAP1 JUMPDEST DUP3 DUP3 LT ISZERO PUSH2 0xE85 JUMPI DUP4 DUP3 SWAP1 PUSH1 0x0 MSTORE PUSH1 0x20 PUSH1 0x0 KECCAK256 SWAP1 PUSH1 0x4 MUL ADD PUSH1 0x40 MLOAD DUP1 PUSH1 0x80 ADD PUSH1 0x40 MSTORE SWAP1 DUP2 PUSH1 0x0 DUP3 ADD SLOAD DUP2 MSTORE PUSH1 0x20 ADD PUSH1 0x1 DUP3 ADD SLOAD DUP2 MSTORE PUSH1 0x20 ADD PUSH1 0x2 DUP3 ADD DUP1 SLOAD PUSH2 0xDEA SWAP1 PUSH2 0x197C JUMP JUMPDEST DUP1 PUSH1 0x1F ADD PUSH1 0x20 DUP1 SWAP2 DIV MUL PUSH1 0x20 ADD PUSH1 0x40 MLOAD SWAP1 DUP2 ADD PUSH1 0x40 MSTORE DUP1 SWAP3 SWAP2 SWAP1 DUP2 DUP2 MSTORE PUSH1 0x20 ADD DUP3 DUP1 SLOAD PUSH2 0xE16 SWAP1 PUSH2 0x197C JUMP JUMPDEST DUP1 ISZERO PUSH2 0xE63 JUMPI DUP1 PUSH1 0x1F LT PUSH2 0xE38 JUMPI PUSH2 0x100 DUP1 DUP4 SLOAD DIV MUL DUP4 MSTORE SWAP2 PUSH1 0x20 ADD SWAP2 PUSH2 0xE63 JUMP JUMPDEST DUP3 ADD SWAP2 SWAP1 PUSH1 0x0 MSTORE PUSH1 0x20 PUSH1 0x0 KECCAK256 SWAP1 JUMPDEST DUP2 SLOAD DUP2 MSTORE SWAP1 PUSH1 0x1 ADD SWAP1 PUSH1 0x20 ADD DUP1 DUP4 GT PUSH2 0xE46 JUMPI DUP3 SWAP1 SUB PUSH1 0x1F AND DUP3 ADD SWAP2 JUMPDEST POP POP POP POP POP DUP2 MSTORE PUSH1 0x20 ADD PUSH1 0x3 DUP3 ADD SLOAD DUP2 MSTORE POP POP DUP2 MSTORE PUSH1 0x20 ADD SWAP1 PUSH1 0x1 ADD SWAP1 PUSH2 0xDA3 JUMP JUMPDEST POP POP DUP3 MLOAD SWAP3 SWAP4 POP DUP3 SWAP2 POP POP PUSH8 0xFFFFFFFFFFFFFFFF DUP2 GT ISZERO PUSH2 0xEA8 JUMPI PUSH2 0xEA8 PUSH2 0x154D JUMP JUMPDEST PUSH1 0x40 MLOAD SWAP1 DUP1 DUP3 MSTORE DUP1 PUSH1 0x20 MUL PUSH1 0x20 ADD DUP3 ADD PUSH1 0x40 MSTORE DUP1 ISZERO PUSH2 0xED1 JUMPI DUP2 PUSH1 0x20 ADD PUSH1 0x20 DUP3 MUL DUP1 CALLDATASIZE DUP4 CALLDATACOPY ADD SWAP1 POP JUMPDEST POP SWAP5 POP DUP1 PUSH8 0xFFFFFFFFFFFFFFFF DUP2 GT ISZERO PUSH2 0xEED JUMPI PUSH2 0xEED PUSH2 0x154D JUMP JUMPDEST PUSH1 0x40 MLOAD SWAP1 DUP1 DUP3 MSTORE DUP1 PUSH1 0x20 MUL PUSH1 0x20 ADD DUP3 ADD PUSH1 0x40 MSTORE DUP1 ISZERO PUSH2 0xF20 JUMPI DUP2 PUSH1 0x20 ADD JUMPDEST PUSH1 0x60 DUP2 MSTORE PUSH1 0x20 ADD SWAP1 PUSH1 0x1 SWAP1 SUB SWAP1 DUP2 PUSH2 0xF0B JUMPI SWAP1 POP JUMPDEST POP SWAP4 POP DUP1 PUSH8 0xFFFFFFFFFFFFFFFF DUP2 GT ISZERO PUSH2 0xF3C JUMPI PUSH2 0xF3C PUSH2 0x154D JUMP JUMPDEST PUSH1 0x40 MLOAD SWAP1 DUP1 DUP3 MSTORE DUP1 PUSH1 0x20 MUL PUSH1 0x20 ADD DUP3 ADD PUSH1 0x40 MSTORE DUP1 ISZERO PUSH2 0xF65 JUMPI DUP2 PUSH1 0x20 ADD PUSH1 0x20 DUP3 MUL DUP1 CALLDATASIZE DUP4 CALLDATACOPY ADD SWAP1 POP JUMPDEST POP SWAP3 POP PUSH1 0x0 JUMPDEST DUP2 DUP2 LT ISZERO PUSH2 0x1037 JUMPI DUP3 DUP2 DUP2 MLOAD DUP2 LT PUSH2 0xF85 JUMPI PUSH2 0xF85 PUSH2 0x1966 JUMP JUMPDEST PUSH1 0x20 MUL PUSH1 0x20 ADD ADD MLOAD PUSH1 0x20 ADD MLOAD DUP7 DUP3 DUP2 MLOAD DUP2 LT PUSH2 0xFA3 JUMPI PUSH2 0xFA3 PUSH2 0x1966 JUMP JUMPDEST PUSH1 0x20 MUL PUSH1 0x20 ADD ADD DUP2 DUP2 MSTORE POP POP DUP3 DUP2 DUP2 MLOAD DUP2 LT PUSH2 0xFC1 JUMPI PUSH2 0xFC1 PUSH2 0x1966 JUMP JUMPDEST PUSH1 0x20 MUL PUSH1 0x20 ADD ADD MLOAD PUSH1 0x40 ADD MLOAD DUP6 DUP3 DUP2 MLOAD DUP2 LT PUSH2 0xFDF JUMPI PUSH2 0xFDF PUSH2 0x1966 JUMP JUMPDEST PUSH1 0x20 MUL PUSH1 0x20 ADD ADD DUP2 SWAP1 MSTORE POP DUP3 DUP2 DUP2 MLOAD DUP2 LT PUSH2 0xFFC JUMPI PUSH2 0xFFC PUSH2 0x1966 JUMP JUMPDEST PUSH1 0x20 MUL PUSH1 0x20 ADD ADD MLOAD PUSH1 0x60 ADD MLOAD DUP5 DUP3 DUP2 MLOAD DUP2 LT PUSH2 0x101A JUMPI PUSH2 0x101A PUSH2 0x1966 JUMP JUMPDEST PUSH1 0x20 SWAP1 DUP2 MUL SWAP2 SWAP1 SWAP2 ADD ADD MSTORE DUP1 PUSH2 0x102F DUP2 PUSH2 0x1A01 JUMP JUMPDEST SWAP2 POP POP PUSH2 0xF6B JUMP JUMPDEST POP POP POP SWAP2 SWAP4 SWAP1 SWAP3 POP JUMP JUMPDEST PUSH1 0x5 PUSH1 0x20 MSTORE DUP2 PUSH1 0x0 MSTORE PUSH1 0x40 PUSH1 0x0 KECCAK256 DUP2 DUP2 SLOAD DUP2 LT PUSH2 0x105D JUMPI PUSH1 0x0 DUP1 REVERT JUMPDEST SWAP1 PUSH1 0x0 MSTORE PUSH1 0x20 PUSH1 0x0 KECCAK256 SWAP1 PUSH1 0x4 MUL ADD PUSH1 0x0 SWAP2 POP SWAP2 POP POP DUP1 PUSH1 0x0 ADD SLOAD SWAP1 DUP1 PUSH1 0x1 ADD SLOAD SWAP1 DUP1 PUSH1 0x2 ADD DUP1 SLOAD PUSH2 0x108D SWAP1 PUSH2 0x197C JUMP JUMPDEST DUP1 PUSH1 0x1F ADD PUSH1 0x20 DUP1 SWAP2 DIV MUL PUSH1 0x20 ADD PUSH1 0x40 MLOAD SWAP1 DUP2 ADD PUSH1 0x40 MSTORE DUP1 SWAP3 SWAP2 SWAP1 DUP2 DUP2 MSTORE PUSH1 0x20 ADD DUP3 DUP1 SLOAD PUSH2 0x10B9 SWAP1 PUSH2 0x197C JUMP JUMPDEST DUP1 ISZERO PUSH2 0x1106 JUMPI DUP1 PUSH1 0x1F LT PUSH2 0x10DB JUMPI PUSH2 0x100 DUP1 DUP4 SLOAD DIV MUL DUP4 MSTORE SWAP2 PUSH1 0x20 ADD SWAP2 PUSH2 0x1106 JUMP JUMPDEST DUP3 ADD SWAP2 SWAP1 PUSH1 0x0 MSTORE PUSH1 0x20 PUSH1 0x0 KECCAK256 SWAP1 JUMPDEST DUP2 SLOAD DUP2 MSTORE SWAP1 PUSH1 0x1 ADD SWAP1 PUSH1 0x20 ADD DUP1 DUP4 GT PUSH2 0x10E9 JUMPI DUP3 SWAP1 SUB PUSH1 0x1F AND DUP3 ADD SWAP2 JUMPDEST POP POP POP POP POP SWAP1 DUP1 PUSH1 0x3 ADD SLOAD SWAP1 POP DUP5 JUMP JUMPDEST DUP2 MLOAD PUSH1 0x20 DUP2 DUP5 ADD DUP2 ADD DUP1 MLOAD PUSH1 0x4 DUP3 MSTORE SWAP3 DUP3 ADD SWAP2 DUP6 ADD SWAP2 SWAP1 SWAP2 KECCAK256 SWAP2 SWAP1 MSTORE DUP1 SLOAD DUP3 SWAP1 DUP2 LT PUSH2 0xD54 JUMPI PUSH1 0x0 DUP1 REVERT JUMPDEST PUSH2 0x1149 PUSH2 0x1487 JUMP JUMPDEST PUSH1 0x1 PUSH1 0x1 PUSH1 0xA0 SHL SUB DUP2 AND PUSH2 0x11AE JUMPI PUSH1 0x40 MLOAD PUSH3 0x461BCD PUSH1 0xE5 SHL DUP2 MSTORE PUSH1 0x20 PUSH1 0x4 DUP3 ADD MSTORE PUSH1 0x26 PUSH1 0x24 DUP3 ADD MSTORE PUSH32 0x4F776E61626C653A206E6577206F776E657220697320746865207A65726F2061 PUSH1 0x44 DUP3 ADD MSTORE PUSH6 0x646472657373 PUSH1 0xD0 SHL PUSH1 0x64 DUP3 ADD MSTORE PUSH1 0x84 ADD PUSH2 0x5C1 JUMP JUMPDEST PUSH2 0x11B7 DUP2 PUSH2 0x14E1 JUMP JUMPDEST POP JUMP JUMPDEST PUSH1 0x0 DUP1 DUP4 GT PUSH2 0x11DB JUMPI PUSH1 0x40 MLOAD PUSH3 0x461BCD PUSH1 0xE5 SHL DUP2 MSTORE PUSH1 0x4 ADD PUSH2 0x5C1 SWAP1 PUSH2 0x1A49 JUMP JUMPDEST PUSH1 0x0 DUP3 GT PUSH2 0x1236 JUMPI PUSH1 0x40 MLOAD PUSH3 0x461BCD PUSH1 0xE5 SHL DUP2 MSTORE PUSH1 0x20 PUSH1 0x4 DUP3 ADD MSTORE PUSH1 0x22 PUSH1 0x24 DUP3 ADD MSTORE PUSH32 0x4475726174696F6E206D7573742062652067726561746572207468616E207A65 PUSH1 0x44 DUP3 ADD MSTORE PUSH2 0x726F PUSH1 0xF0 SHL PUSH1 0x64 DUP3 ADD MSTORE PUSH1 0x84 ADD PUSH2 0x5C1 JUMP JUMPDEST PUSH1 0x6 DUP1 SLOAD PUSH1 0x0 SWAP2 DUP3 PUSH2 0x1247 DUP4 PUSH2 0x1A01 JUMP JUMPDEST SWAP1 SWAP2 SSTORE POP SWAP1 POP TIMESTAMP PUSH1 0x0 PUSH2 0x125A DUP6 DUP4 PUSH2 0x1A93 JUMP JUMPDEST PUSH1 0x40 DUP1 MLOAD PUSH2 0x100 DUP2 ADD DUP3 MSTORE DUP6 DUP2 MSTORE PUSH1 0x1 PUSH1 0x1 PUSH1 0xA0 SHL SUB DUP12 DUP2 AND PUSH1 0x20 DUP1 DUP5 ADD SWAP2 DUP3 MSTORE DUP4 DUP6 ADD DUP14 DUP2 MSTORE PUSH1 0x60 DUP6 ADD DUP14 SWAP1 MSTORE PUSH1 0x0 PUSH1 0x80 DUP7 ADD DUP2 SWAP1 MSTORE PUSH1 0xA0 DUP7 ADD DUP11 SWAP1 MSTORE PUSH1 0xC0 DUP7 ADD DUP9 SWAP1 MSTORE PUSH1 0x1 PUSH1 0xE0 DUP8 ADD DUP2 SWAP1 MSTORE DUP12 DUP3 MSTORE PUSH1 0x2 SWAP4 DUP5 SWAP1 MSTORE SWAP7 SWAP1 KECCAK256 DUP6 MLOAD DUP2 SSTORE SWAP3 MLOAD SWAP6 DUP4 ADD DUP1 SLOAD PUSH1 0x1 PUSH1 0x1 PUSH1 0xA0 SHL SUB NOT AND SWAP7 SWAP1 SWAP5 AND SWAP6 SWAP1 SWAP6 OR SWAP1 SWAP3 SSTORE SWAP3 MLOAD SWAP4 SWAP5 POP SWAP1 SWAP3 SWAP1 DUP3 ADD SWAP1 PUSH2 0x12E9 SWAP1 DUP3 PUSH2 0x1AF5 JUMP JUMPDEST POP PUSH1 0x60 DUP3 ADD MLOAD PUSH1 0x3 DUP3 DUP2 ADD SWAP2 SWAP1 SWAP2 SSTORE PUSH1 0x80 DUP4 ADD MLOAD PUSH1 0x4 DUP1 DUP5 ADD SWAP2 SWAP1 SWAP2 SSTORE PUSH1 0xA0 DUP5 ADD MLOAD PUSH1 0x5 DUP5 ADD SSTORE PUSH1 0xC0 DUP5 ADD MLOAD PUSH1 0x6 DUP5 ADD SSTORE PUSH1 0xE0 SWAP1 SWAP4 ADD MLOAD PUSH1 0x7 SWAP1 SWAP3 ADD DUP1 SLOAD PUSH1 0xFF NOT AND SWAP3 ISZERO ISZERO SWAP3 SWAP1 SWAP3 OR SWAP1 SWAP2 SSTORE PUSH1 0x1 PUSH1 0x1 PUSH1 0xA0 SHL SUB DUP11 AND PUSH1 0x0 SWAP1 DUP2 MSTORE PUSH1 0x20 SWAP2 DUP3 MSTORE PUSH1 0x40 DUP1 DUP3 KECCAK256 DUP1 SLOAD PUSH1 0x1 DUP2 ADD DUP3 SSTORE SWAP1 DUP4 MSTORE SWAP3 SWAP1 SWAP2 KECCAK256 SWAP1 SWAP2 ADD DUP6 SWAP1 SSTORE MLOAD PUSH2 0x136F SWAP1 DUP10 SWAP1 PUSH2 0x19B6 JUMP JUMPDEST SWAP1 DUP2 MSTORE PUSH1 0x40 MLOAD SWAP1 DUP2 SWAP1 SUB PUSH1 0x20 SWAP1 DUP2 ADD DUP3 KECCAK256 DUP1 SLOAD PUSH1 0x1 DUP2 ADD DUP3 SSTORE PUSH1 0x0 SWAP2 DUP3 MSTORE SWAP2 SWAP1 KECCAK256 ADD DUP5 SWAP1 SSTORE PUSH1 0x1 PUSH1 0x1 PUSH1 0xA0 SHL SUB DUP10 AND SWAP1 DUP5 SWAP1 PUSH32 0x6FCFF152AE54D536296A9D4415BA287F76346C0016C760BDD79C2F5A40D2BD04 SWAP1 PUSH2 0x13D4 SWAP1 DUP12 SWAP1 DUP12 SWAP1 DUP9 SWAP1 DUP9 SWAP1 PUSH2 0x1C0F JUMP JUMPDEST PUSH1 0x40 MLOAD DUP1 SWAP2 SUB SWAP1 LOG3 POP SWAP1 SWAP7 SWAP6 POP POP POP POP POP POP JUMP JUMPDEST PUSH1 0x0 DUP2 DUP2 MSTORE PUSH1 0x2 PUSH1 0x20 MSTORE PUSH1 0x40 DUP2 KECCAK256 DUP1 SLOAD SWAP1 SWAP2 SUB PUSH2 0x1417 JUMPI PUSH1 0x40 MLOAD PUSH3 0x461BCD PUSH1 0xE5 SHL DUP2 MSTORE PUSH1 0x4 ADD PUSH2 0x5C1 SWAP1 PUSH2 0x1A1A JUMP JUMPDEST PUSH1 0x1 DUP2 ADD SLOAD PUSH1 0x1 PUSH1 0x1 PUSH1 0xA0 SHL SUB AND CALLER EQ DUP1 PUSH2 0x143C JUMPI POP PUSH1 0x0 SLOAD PUSH1 0x1 PUSH1 0x1 PUSH1 0xA0 SHL SUB AND CALLER EQ JUMPDEST PUSH2 0x1479 JUMPI PUSH1 0x40 MLOAD PUSH3 0x461BCD PUSH1 0xE5 SHL DUP2 MSTORE PUSH1 0x20 PUSH1 0x4 DUP3 ADD MSTORE PUSH1 0xE PUSH1 0x24 DUP3 ADD MSTORE PUSH14 0x139BDD08185D5D1A1BDC9A5E9959 PUSH1 0x92 SHL PUSH1 0x44 DUP3 ADD MSTORE PUSH1 0x64 ADD PUSH2 0x5C1 JUMP JUMPDEST PUSH1 0x7 ADD DUP1 SLOAD PUSH1 0xFF NOT AND SWAP1 SSTORE POP JUMP JUMPDEST PUSH1 0x0 SLOAD PUSH1 0x1 PUSH1 0x1 PUSH1 0xA0 SHL SUB AND CALLER EQ PUSH2 0xBD5 JUMPI PUSH1 0x40 MLOAD PUSH3 0x461BCD PUSH1 0xE5 SHL DUP2 MSTORE PUSH1 0x20 PUSH1 0x4 DUP3 ADD DUP2 SWAP1 MSTORE PUSH1 0x24 DUP3 ADD MSTORE PUSH32 0x4F776E61626C653A2063616C6C6572206973206E6F7420746865206F776E6572 PUSH1 0x44 DUP3 ADD MSTORE PUSH1 0x64 ADD PUSH2 0x5C1 JUMP JUMPDEST PUSH1 0x0 DUP1 SLOAD PUSH1 0x1 PUSH1 0x1 PUSH1 0xA0 SHL SUB DUP4 DUP2 AND PUSH1 0x1 PUSH1 0x1 PUSH1 0xA0 SHL SUB NOT DUP4 AND DUP2 OR DUP5 SSTORE PUSH1 0x40 MLOAD SWAP2 SWAP1 SWAP3 AND SWAP3 DUP4 SWAP2 PUSH32 0x8BE0079C531659141344CD1FD0A4F28419497F9722A3DAAFE3B4186F6B6457E0 SWAP2 SWAP1 LOG3 POP POP JUMP JUMPDEST DUP1 CALLDATALOAD PUSH1 0x1 PUSH1 0x1 PUSH1 0xA0 SHL SUB DUP2 AND DUP2 EQ PUSH2 0x1548 JUMPI PUSH1 0x0 DUP1 REVERT JUMPDEST SWAP2 SWAP1 POP JUMP JUMPDEST PUSH4 0x4E487B71 PUSH1 0xE0 SHL PUSH1 0x0 MSTORE PUSH1 0x41 PUSH1 0x4 MSTORE PUSH1 0x24 PUSH1 0x0 REVERT JUMPDEST PUSH1 0x0 DUP3 PUSH1 0x1F DUP4 ADD SLT PUSH2 0x1574 JUMPI PUSH1 0x0 DUP1 REVERT JUMPDEST DUP2 CALLDATALOAD PUSH8 0xFFFFFFFFFFFFFFFF DUP1 DUP3 GT ISZERO PUSH2 0x158F JUMPI PUSH2 0x158F PUSH2 0x154D JUMP JUMPDEST PUSH1 0x40 MLOAD PUSH1 0x1F DUP4 ADD PUSH1 0x1F NOT SWAP1 DUP2 AND PUSH1 0x3F ADD AND DUP2 ADD SWAP1 DUP3 DUP3 GT DUP2 DUP4 LT OR ISZERO PUSH2 0x15B7 JUMPI PUSH2 0x15B7 PUSH2 0x154D JUMP JUMPDEST DUP2 PUSH1 0x40 MSTORE DUP4 DUP2 MSTORE DUP7 PUSH1 0x20 DUP6 DUP9 ADD ADD GT ISZERO PUSH2 0x15D0 JUMPI PUSH1 0x0 DUP1 REVERT JUMPDEST DUP4 PUSH1 0x20 DUP8 ADD PUSH1 0x20 DUP4 ADD CALLDATACOPY PUSH1 0x0 PUSH1 0x20 DUP6 DUP4 ADD ADD MSTORE DUP1 SWAP5 POP POP POP POP POP SWAP3 SWAP2 POP POP JUMP JUMPDEST PUSH1 0x0 DUP1 PUSH1 0x0 PUSH1 0x60 DUP5 DUP7 SUB SLT ISZERO PUSH2 0x1605 JUMPI PUSH1 0x0 DUP1 REVERT JUMPDEST PUSH2 0x160E DUP5 PUSH2 0x1531 JUMP JUMPDEST SWAP3 POP PUSH1 0x20 DUP5 ADD CALLDATALOAD PUSH8 0xFFFFFFFFFFFFFFFF DUP2 GT ISZERO PUSH2 0x162A JUMPI PUSH1 0x0 DUP1 REVERT JUMPDEST PUSH2 0x1636 DUP7 DUP3 DUP8 ADD PUSH2 0x1563 JUMP JUMPDEST SWAP3 POP POP PUSH1 0x40 DUP5 ADD CALLDATALOAD SWAP1 POP SWAP3 POP SWAP3 POP SWAP3 JUMP JUMPDEST PUSH1 0x0 DUP1 PUSH1 0x40 DUP4 DUP6 SUB SLT ISZERO PUSH2 0x165A JUMPI PUSH1 0x0 DUP1 REVERT JUMPDEST POP POP DUP1 CALLDATALOAD SWAP3 PUSH1 0x20 SWAP1 SWAP2 ADD CALLDATALOAD SWAP2 POP JUMP JUMPDEST PUSH1 0x0 PUSH1 0x20 DUP3 DUP5 SUB SLT ISZERO PUSH2 0x167B JUMPI PUSH1 0x0 DUP1 REVERT JUMPDEST POP CALLDATALOAD SWAP2 SWAP1 POP JUMP JUMPDEST PUSH1 0x0 JUMPDEST DUP4 DUP2 LT ISZERO PUSH2 0x169D JUMPI DUP2 DUP2 ADD MLOAD DUP4 DUP3 ADD MSTORE PUSH1 0x20 ADD PUSH2 0x1685 JUMP JUMPDEST POP POP PUSH1 0x0 SWAP2 ADD MSTORE JUMP JUMPDEST PUSH1 0x0 DUP2 MLOAD DUP1 DUP5 MSTORE PUSH2 0x16BE DUP2 PUSH1 0x20 DUP7 ADD PUSH1 0x20 DUP7 ADD PUSH2 0x1682 JUMP JUMPDEST PUSH1 0x1F ADD PUSH1 0x1F NOT AND SWAP3 SWAP1 SWAP3 ADD PUSH1 0x20 ADD SWAP3 SWAP2 POP POP JUMP JUMPDEST DUP9 DUP2 MSTORE PUSH1 0x1 PUSH1 0x1 PUSH1 0xA0 SHL SUB DUP9 AND PUSH1 0x20 DUP3 ADD MSTORE PUSH2 0x100 PUSH1 0x40 DUP3 ADD DUP2 SWAP1 MSTORE PUSH1 0x0 SWAP1 PUSH2 0x16FD DUP4 DUP3 ADD DUP11 PUSH2 0x16A6 JUMP JUMPDEST PUSH1 0x60 DUP5 ADD SWAP9 SWAP1 SWAP9 MSTORE POP POP PUSH1 0x80 DUP2 ADD SWAP5 SWAP1 SWAP5 MSTORE PUSH1 0xA0 DUP5 ADD SWAP3 SWAP1 SWAP3 MSTORE PUSH1 0xC0 DUP4 ADD MSTORE ISZERO ISZERO PUSH1 0xE0 SWAP1 SWAP2 ADD MSTORE SWAP4 SWAP3 POP POP POP JUMP JUMPDEST PUSH1 0x0 DUP1 PUSH1 0x0 PUSH1 0x60 DUP5 DUP7 SUB SLT ISZERO PUSH2 0x1740 JUMPI PUSH1 0x0 DUP1 REVERT JUMPDEST DUP4 CALLDATALOAD SWAP3 POP PUSH1 0x20 DUP5 ADD CALLDATALOAD SWAP2 POP PUSH1 0x40 DUP5 ADD CALLDATALOAD PUSH8 0xFFFFFFFFFFFFFFFF DUP2 GT ISZERO PUSH2 0x1765 JUMPI PUSH1 0x0 DUP1 REVERT JUMPDEST PUSH2 0x1771 DUP7 DUP3 DUP8 ADD PUSH2 0x1563 JUMP JUMPDEST SWAP2 POP POP SWAP3 POP SWAP3 POP SWAP3 JUMP JUMPDEST PUSH1 0x0 PUSH1 0x20 DUP3 DUP5 SUB SLT ISZERO PUSH2 0x178D JUMPI PUSH1 0x0 DUP1 REVERT JUMPDEST PUSH2 0xD31 DUP3 PUSH2 0x1531 JUMP JUMPDEST PUSH1 0x0 DUP2 MLOAD DUP1 DUP5 MSTORE PUSH1 0x20 DUP1 DUP6 ADD SWAP5 POP DUP1 DUP5 ADD PUSH1 0x0 JUMPDEST DUP4 DUP2 LT ISZERO PUSH2 0x17C6 JUMPI DUP2 MLOAD DUP8 MSTORE SWAP6 DUP3 ADD SWAP6 SWAP1 DUP3 ADD SWAP1 PUSH1 0x1 ADD PUSH2 0x17AA JUMP JUMPDEST POP SWAP5 SWAP6 SWAP5 POP POP POP POP POP JUMP JUMPDEST PUSH1 0x20 DUP2 MSTORE PUSH1 0x0 PUSH2 0xD31 PUSH1 0x20 DUP4 ADD DUP5 PUSH2 0x1796 JUMP JUMPDEST PUSH1 0x0 DUP1 PUSH1 0x40 DUP4 DUP6 SUB SLT ISZERO PUSH2 0x17F7 JUMPI PUSH1 0x0 DUP1 REVERT JUMPDEST PUSH2 0x1800 DUP4 PUSH2 0x1531 JUMP JUMPDEST SWAP5 PUSH1 0x20 SWAP4 SWAP1 SWAP4 ADD CALLDATALOAD SWAP4 POP POP POP JUMP JUMPDEST PUSH1 0x60 DUP2 MSTORE PUSH1 0x0 PUSH2 0x1821 PUSH1 0x60 DUP4 ADD DUP7 PUSH2 0x1796 JUMP JUMPDEST PUSH1 0x20 DUP4 DUP3 SUB DUP2 DUP6 ADD MSTORE DUP2 DUP7 MLOAD DUP1 DUP5 MSTORE DUP3 DUP5 ADD SWAP2 POP DUP3 DUP2 PUSH1 0x5 SHL DUP6 ADD ADD DUP4 DUP10 ADD PUSH1 0x0 JUMPDEST DUP4 DUP2 LT ISZERO PUSH2 0x1871 JUMPI PUSH1 0x1F NOT DUP8 DUP5 SUB ADD DUP6 MSTORE PUSH2 0x185F DUP4 DUP4 MLOAD PUSH2 0x16A6 JUMP JUMPDEST SWAP5 DUP7 ADD SWAP5 SWAP3 POP SWAP1 DUP6 ADD SWAP1 PUSH1 0x1 ADD PUSH2 0x1843 JUMP JUMPDEST POP POP DUP7 DUP2 SUB PUSH1 0x40 DUP9 ADD MSTORE PUSH2 0x1885 DUP2 DUP10 PUSH2 0x1796 JUMP JUMPDEST SWAP11 SWAP10 POP POP POP POP POP POP POP POP POP POP JUMP JUMPDEST DUP5 DUP2 MSTORE DUP4 PUSH1 0x20 DUP3 ADD MSTORE PUSH1 0x80 PUSH1 0x40 DUP3 ADD MSTORE PUSH1 0x0 PUSH2 0x18B2 PUSH1 0x80 DUP4 ADD DUP6 PUSH2 0x16A6 JUMP JUMPDEST SWAP1 POP DUP3 PUSH1 0x60 DUP4 ADD MSTORE SWAP6 SWAP5 POP POP POP POP POP JUMP JUMPDEST PUSH1 0x0 DUP1 PUSH1 0x40 DUP4 DUP6 SUB SLT ISZERO PUSH2 0x18D6 JUMPI PUSH1 0x0 DUP1 REVERT JUMPDEST DUP3 CALLDATALOAD PUSH8 0xFFFFFFFFFFFFFFFF DUP2 GT ISZERO PUSH2 0x18ED JUMPI PUSH1 0x0 DUP1 REVERT JUMPDEST PUSH2 0x18F9 DUP6 DUP3 DUP7 ADD PUSH2 0x1563 JUMP JUMPDEST SWAP6 PUSH1 0x20 SWAP5 SWAP1 SWAP5 ADD CALLDATALOAD SWAP5 POP POP POP POP JUMP JUMPDEST PUSH1 0x0 DUP1 PUSH1 0x0 DUP1 PUSH1 0x80 DUP6 DUP8 SUB SLT ISZERO PUSH2 0x191E JUMPI PUSH1 0x0 DUP1 REVERT JUMPDEST PUSH2 0x1927 DUP6 PUSH2 0x1531 JUMP JUMPDEST SWAP4 POP PUSH1 0x20 DUP6 ADD CALLDATALOAD PUSH8 0xFFFFFFFFFFFFFFFF DUP2 GT ISZERO PUSH2 0x1943 JUMPI PUSH1 0x0 DUP1 REVERT JUMPDEST PUSH2 0x194F DUP8 DUP3 DUP9 ADD PUSH2 0x1563 JUMP JUMPDEST SWAP5 SWAP8 SWAP5 SWAP7 POP POP POP POP PUSH1 0x40 DUP4 ADD CALLDATALOAD SWAP3 PUSH1 0x60 ADD CALLDATALOAD SWAP2 SWAP1 POP JUMP JUMPDEST PUSH4 0x4E487B71 PUSH1 0xE0 SHL PUSH1 0x0 MSTORE PUSH1 0x32 PUSH1 0x4 MSTORE PUSH1 0x24 PUSH1 0x0 REVERT JUMPDEST PUSH1 0x1 DUP2 DUP2 SHR SWAP1 DUP3 AND DUP1 PUSH2 0x1990 JUMPI PUSH1 0x7F DUP3 AND SWAP2 POP JUMPDEST PUSH1 0x20 DUP3 LT DUP2 SUB PUSH2 0x19B0 JUMPI PUSH4 0x4E487B71 PUSH1 0xE0 SHL PUSH1 0x0 MSTORE PUSH1 0x22 PUSH1 0x4 MSTORE PUSH1 0x24 PUSH1 0x0 REVERT JUMPDEST POP SWAP2 SWAP1 POP JUMP JUMPDEST PUSH1 0x0 DUP3 MLOAD PUSH2 0x19C8 DUP2 DUP5 PUSH1 0x20 DUP8 ADD PUSH2 0x1682 JUMP JUMPDEST SWAP2 SWAP1 SWAP2 ADD SWAP3 SWAP2 POP POP JUMP JUMPDEST PUSH4 0x4E487B71 PUSH1 0xE0 SHL PUSH1 0x0 MSTORE PUSH1 0x11 PUSH1 0x4 MSTORE PUSH1 0x24 PUSH1 0x0 REVERT JUMPDEST DUP2 DUP2 SUB DUP2 DUP2 GT ISZERO PUSH2 0x19FB JUMPI PUSH2 0x19FB PUSH2 0x19D2 JUMP JUMPDEST SWAP3 SWAP2 POP POP JUMP JUMPDEST PUSH1 0x0 PUSH1 0x1 DUP3 ADD PUSH2 0x1A13 JUMPI PUSH2 0x1A13 PUSH2 0x19D2 JUMP JUMPDEST POP PUSH1 0x1 ADD SWAP1 JUMP JUMPDEST PUSH1 0x20 DUP1 DUP3 MSTORE PUSH1 0x15 SWAP1 DUP3 ADD MSTORE PUSH21 0x109D5919D95D08191BD95CC81B9BDD08195E1A5CDD PUSH1 0x5A SHL PUSH1 0x40 DUP3 ADD MSTORE PUSH1 0x60 ADD SWAP1 JUMP JUMPDEST PUSH1 0x20 DUP1 DUP3 MSTORE PUSH1 0x2A SWAP1 DUP3 ADD MSTORE PUSH32 0x416C6C6F636174656420616D6F756E74206D7573742062652067726561746572 PUSH1 0x40 DUP3 ADD MSTORE PUSH10 0x207468616E207A65726F PUSH1 0xB0 SHL PUSH1 0x60 DUP3 ADD MSTORE PUSH1 0x80 ADD SWAP1 JUMP JUMPDEST DUP1 DUP3 ADD DUP1 DUP3 GT ISZERO PUSH2 0x19FB JUMPI PUSH2 0x19FB PUSH2 0x19D2 JUMP JUMPDEST PUSH1 0x1F DUP3 GT ISZERO PUSH2 0x1AF0 JUMPI PUSH1 0x0 DUP2 DUP2 MSTORE PUSH1 0x20 DUP2 KECCAK256 PUSH1 0x1F DUP6 ADD PUSH1 0x5 SHR DUP2 ADD PUSH1 0x20 DUP7 LT ISZERO PUSH2 0x1ACD JUMPI POP DUP1 JUMPDEST PUSH1 0x1F DUP6 ADD PUSH1 0x5 SHR DUP3 ADD SWAP2 POP JUMPDEST DUP2 DUP2 LT ISZERO PUSH2 0x1AEC JUMPI DUP3 DUP2 SSTORE PUSH1 0x1 ADD PUSH2 0x1AD9 JUMP JUMPDEST POP POP POP JUMPDEST POP POP POP JUMP JUMPDEST DUP2 MLOAD PUSH8 0xFFFFFFFFFFFFFFFF DUP2 GT ISZERO PUSH2 0x1B0F JUMPI PUSH2 0x1B0F PUSH2 0x154D JUMP JUMPDEST PUSH2 0x1B23 DUP2 PUSH2 0x1B1D DUP5 SLOAD PUSH2 0x197C JUMP JUMPDEST DUP5 PUSH2 0x1AA6 JUMP JUMPDEST PUSH1 0x20 DUP1 PUSH1 0x1F DUP4 GT PUSH1 0x1 DUP2 EQ PUSH2 0x1B58 JUMPI PUSH1 0x0 DUP5 ISZERO PUSH2 0x1B40 JUMPI POP DUP6 DUP4 ADD MLOAD JUMPDEST PUSH1 0x0 NOT PUSH1 0x3 DUP7 SWAP1 SHL SHR NOT AND PUSH1 0x1 DUP6 SWAP1 SHL OR DUP6 SSTORE PUSH2 0x1AEC JUMP JUMPDEST PUSH1 0x0 DUP6 DUP2 MSTORE PUSH1 0x20 DUP2 KECCAK256 PUSH1 0x1F NOT DUP7 AND SWAP2 JUMPDEST DUP3 DUP2 LT ISZERO PUSH2 0x1B87 JUMPI DUP9 DUP7 ADD MLOAD DUP3 SSTORE SWAP5 DUP5 ADD SWAP5 PUSH1 0x1 SWAP1 SWAP2 ADD SWAP1 DUP5 ADD PUSH2 0x1B68 JUMP JUMPDEST POP DUP6 DUP3 LT ISZERO PUSH2 0x1BA5 JUMPI DUP8 DUP6 ADD MLOAD PUSH1 0x0 NOT PUSH1 0x3 DUP9 SWAP1 SHL PUSH1 0xF8 AND SHR NOT AND DUP2 SSTORE JUMPDEST POP POP POP POP POP PUSH1 0x1 SWAP1 DUP2 SHL ADD SWAP1 SSTORE POP JUMP JUMPDEST DUP3 DUP2 MSTORE PUSH1 0x40 PUSH1 0x20 DUP3 ADD MSTORE PUSH1 0x0 PUSH2 0x1BCE PUSH1 0x40 DUP4 ADD DUP5 PUSH2 0x16A6 JUMP JUMPDEST SWAP5 SWAP4 POP POP POP POP JUMP JUMPDEST DUP1 DUP3 MUL DUP2 ISZERO DUP3 DUP3 DIV DUP5 EQ OR PUSH2 0x19FB JUMPI PUSH2 0x19FB PUSH2 0x19D2 JUMP JUMPDEST PUSH1 0x0 DUP3 PUSH2 0x1C0A JUMPI PUSH4 0x4E487B71 PUSH1 0xE0 SHL PUSH1 0x0 MSTORE PUSH1 0x12 PUSH1 0x4 MSTORE PUSH1 0x24 PUSH1 0x0 REVERT JUMPDEST POP DIV SWAP1 JUMP JUMPDEST PUSH1 0x80 DUP2 MSTORE PUSH1 0x0 PUSH2 0x1C22 PUSH1 0x80 DUP4 ADD DUP8 PUSH2 0x16A6 JUMP JUMPDEST PUSH1 0x20 DUP4 ADD SWAP6 SWAP1 SWAP6 MSTORE POP PUSH1 0x40 DUP2 ADD SWAP3 SWAP1 SWAP3 MSTORE PUSH1 0x60 SWAP1 SWAP2 ADD MSTORE SWAP2 SWAP1 POP JUMP INVALID LOG2 PUSH5 0x6970667358 0x22 SLT KECCAK256 MLOAD CALLDATALOAD 0xDC SLOAD RETURN PUSH1 0xCD 0x4D 0xCF SSTORE PUSH18 0xAE7574BAADBDDDCA6E2DC2E634F1F7DFE472 ADD BLOCKHASH 0xEC PUSH5 0x736F6C6343 STOP ADDMOD SGT STOP CALLER "},"methodIdentifiers":{"budgetSpending(uint256,uint256)":"cb3b0265","budgets(uint256)":"69f0e05f","categoryBudgets(string,uint256)":"e07235d6","checkBudgetLimits(address,string,uint256)":"22d639b2","createBudget(address,string,uint256,uint256)":"fb6c06ac","deactivateBudget(uint256)":"fcd7e5a7","finguardToken()":"36002b97","getBudget(uint256)":"2e4ea4c4","getBudgetSpending(uint256)":"c3627ef6","getBudgetUtilization(uint256)":"815de3fe","getUserBudgets(address)":"54370dc2","nextBudgetId()":"aa2c7d1d","owner()":"8da5cb5b","recordSpending(uint256,uint256,string)":"50a1438a","renounceOwnership()":"715018a6","transferOwnership(address)":"f2fde38b","updateBudgetAllocation(uint256,uint256)":"2c79ea02","userBudgets(address,uint256)":"8aecdf62"}}}}}