{
  "_format": "hh-sol-artifact-1",
  "contractName": "BudgetManager",
  "sourceName": "contracts/BudgetManager.sol",
  "abi": [
    {
      "inputs": [
        {
          "internalType": "address",
          "name": "_tokenAddress",
          "type": "address"
        }
      ],
      "stateMutability": "nonpayable",
      "type": "constructor"
    },
    {
      "anonymous": false,
      "inputs": [
        {
          "indexed": true,
          "internalType": "uint256",
          "name": "budgetId",
          "type": "uint256"
        }
      ],
      "name": "BudgetCompleted",
      "type": "event"
    },
    {
      "anonymous": false,
      "inputs": [
        {
          "indexed": true,
          "internalType": "uint256",
          "name": "budgetId",
          "type": "uint256"
        },
        {
          "indexed": true,
          "internalType": "address",
          "name": "user",
          "type": "address"
        },
        {
          "indexed": false,
          "internalType": "string",
          "name": "category",
          "type": "string"
        },
        {
          "indexed": false,
          "internalType": "uint256",
          "name": "allocatedAmount",
          "type": "uint256"
        },
        {
          "indexed": false,
          "internalType": "uint256",
          "name": "startDate",
          "type": "uint256"
        },
        {
          "indexed": false,
          "internalType": "uint256",
          "name": "endDate",
          "type": "uint256"
        }
      ],
      "name": "BudgetCreated",
      "type": "event"
    },
    {
      "anonymous": false,
      "inputs": [
        {
          "indexed": true,
          "internalType": "uint256",
          "name": "budgetId",
          "type": "uint256"
        },
        {
          "indexed": false,
          "internalType": "uint256",
          "name": "overspentAmount",
          "type": "uint256"
        }
      ],
      "name": "BudgetExceeded",
      "type": "event"
    },
    {
      "anonymous": false,
      "inputs": [
        {
          "indexed": true,
          "internalType": "uint256",
          "name": "budgetId",
          "type": "uint256"
        },
        {
          "indexed": false,
          "internalType": "uint256",
          "name": "newAllocatedAmount",
          "type": "uint256"
        }
      ],
      "name": "BudgetUpdated",
      "type": "event"
    },
    {
      "anonymous": false,
      "inputs": [
        {
          "indexed": true,
          "internalType": "address",
          "name": "previousOwner",
          "type": "address"
        },
        {
          "indexed": true,
          "internalType": "address",
          "name": "newOwner",
          "type": "address"
        }
      ],
      "name": "OwnershipTransferred",
      "type": "event"
    },
    {
      "anonymous": false,
      "inputs": [
        {
          "indexed": true,
          "internalType": "uint256",
          "name": "budgetId",
          "type": "uint256"
        },
        {
          "indexed": false,
          "internalType": "uint256",
          "name": "amount",
          "type": "uint256"
        },
        {
          "indexed": false,
          "internalType": "string",
          "name": "description",
          "type": "string"
        }
      ],
      "name": "SpendingRecorded",
      "type": "event"
    },
    {
      "inputs": [
        {
          "internalType": "uint256",
          "name": "",
          "type": "uint256"
        },
        {
          "internalType": "uint256",
          "name": "",
          "type": "uint256"
        }
      ],
      "name": "budgetSpending",
      "outputs": [
        {
          "internalType": "uint256",
          "name": "budgetId",
          "type": "uint256"
        },
        {
          "internalType": "uint256",
          "name": "amount",
          "type": "uint256"
        },
        {
          "internalType": "string",
          "name": "description",
          "type": "string"
        },
        {
          "internalType": "uint256",
          "name": "timestamp",
          "type": "uint256"
        }
      ],
      "stateMutability": "view",
      "type": "function"
    },
    {
      "inputs": [
        {
          "internalType": "uint256",
          "name": "",
          "type": "uint256"
        }
      ],
      "name": "budgets",
      "outputs": [
        {
          "internalType": "uint256",
          "name": "id",
          "type": "uint256"
        },
        {
          "internalType": "address",
          "name": "user",
          "type": "address"
        },
        {
          "internalType": "string",
          "name": "category",
          "type": "string"
        },
        {
          "internalType": "uint256",
          "name": "allocatedAmount",
          "type": "uint256"
        },
        {
          "internalType": "uint256",
          "name": "spentAmount",
          "type": "uint256"
        },
        {
          "internalType": "uint256",
          "name": "startDate",
          "type": "uint256"
        },
        {
          "internalType": "uint256",
          "name": "endDate",
          "type": "uint256"
        },
        {
          "internalType": "bool",
          "name": "isActive",
          "type": "bool"
        }
      ],
      "stateMutability": "view",
      "type": "function"
    },
    {
      "inputs": [
        {
          "internalType": "string",
          "name": "",
          "type": "string"
        },
        {
          "internalType": "uint256",
          "name": "",
          "type": "uint256"
        }
      ],
      "name": "categoryBudgets",
      "outputs": [
        {
          "internalType": "uint256",
          "name": "",
          "type": "uint256"
        }
      ],
      "stateMutability": "view",
      "type": "function"
    },
    {
      "inputs": [
        {
          "internalType": "address",
          "name": "user",
          "type": "address"
        },
        {
          "internalType": "string",
          "name": "category",
          "type": "string"
        },
        {
          "internalType": "uint256",
          "name": "amount",
          "type": "uint256"
        }
      ],
      "name": "checkBudgetLimits",
      "outputs": [
        {
          "internalType": "bool",
          "name": "withinLimit",
          "type": "bool"
        },
        {
          "internalType": "uint256",
          "name": "availableAmount",
          "type": "uint256"
        },
        {
          "internalType": "uint256",
          "name": "budgetId",
          "type": "uint256"
        }
      ],
      "stateMutability": "view",
      "type": "function"
    },
    {
      "inputs": [
        {
          "internalType": "address",
          "name": "user",
          "type": "address"
        },
        {
          "internalType": "string",
          "name": "category",
          "type": "string"
        },
        {
          "internalType": "uint256",
          "name": "allocatedAmount",
          "type": "uint256"
        },
        {
          "internalType": "uint256",
          "name": "duration",
          "type": "uint256"
        }
      ],
      "name": "createBudget",
      "outputs": [
        {
          "internalType": "uint256",
          "name": "",
          "type": "uint256"
        }
      ],
      "stateMutability": "nonpayable",
      "type": "function"
    },
    {
      "inputs": [
        {
          "internalType": "uint256",
          "name": "budgetId",
          "type": "uint256"
        }
      ],
      "name": "deactivateBudget",
      "outputs": [],
      "stateMutability": "nonpayable",
      "type": "function"
    },
    {
      "inputs": [],
      "name": "finguardToken",
      "outputs": [
        {
          "internalType": "contract FinGuardToken",
          "name": "",
          "type": "address"
        }
      ],
      "stateMutability": "view",
      "type": "function"
    },
    {
      "inputs": [
        {
          "internalType": "uint256",
          "name": "budgetId",
          "type": "uint256"
        }
      ],
      "name": "getBudget",
      "outputs": [
        {
          "internalType": "uint256",
          "name": "id",
          "type": "uint256"
        },
        {
          "internalType": "address",
          "name": "user",
          "type": "address"
        },
        {
          "internalType": "string",
          "name": "category",
          "type": "string"
        },
        {
          "internalType": "uint256",
          "name": "allocatedAmount",
          "type": "uint256"
        },
        {
          "internalType": "uint256",
          "name": "spentAmount",
          "type": "uint256"
        },
        {
          "internalType": "uint256",
          "name": "startDate",
          "type": "uint256"
        },
        {
          "internalType": "uint256",
          "name": "endDate",
          "type": "uint256"
        },
        {
          "internalType": "bool",
          "name": "isActive",
          "type": "bool"
        }
      ],
      "stateMutability": "view",
      "type": "function"
    },
    {
      "inputs": [
        {
          "internalType": "uint256",
          "name": "budgetId",
          "type": "uint256"
        }
      ],
      "name": "getBudgetSpending",
      "outputs": [
        {
          "internalType": "uint256[]",
          "name": "amounts",
          "type": "uint256[]"
        },
        {
          "internalType": "string[]",
          "name": "descriptions",
          "type": "string[]"
        },
        {
          "internalType": "uint256[]",
          "name": "timestamps",
          "type": "uint256[]"
        }
      ],
      "stateMutability": "view",
      "type": "function"
    },
    {
      "inputs": [
        {
          "internalType": "uint256",
          "name": "budgetId",
          "type": "uint256"
        }
      ],
      "name": "getBudgetUtilization",
      "outputs": [
        {
          "internalType": "uint256",
          "name": "",
          "type": "uint256"
        }
      ],
      "stateMutability": "view",
      "type": "function"
    },
    {
      "inputs": [
        {
          "internalType": "address",
          "name": "user",
          "type": "address"
        }
      ],
      "name": "getUserBudgets",
      "outputs": [
        {
          "internalType": "uint256[]",
          "name": "",
          "type": "uint256[]"
        }
      ],
      "stateMutability": "view",
      "type": "function"
    },
    {
      "inputs": [],
      "name": "nextBudgetId",
      "outputs": [
        {
          "internalType": "uint256",
          "name": "",
          "type": "uint256"
        }
      ],
      "stateMutability": "view",
      "type": "function"
    },
    {
      "inputs": [],
      "name": "owner",
      "outputs": [
        {
          "internalType": "address",
          "name": "",
          "type": "address"
        }
      ],
      "stateMutability": "view",
      "type": "function"
    },
    {
      "inputs": [
        {
          "internalType": "uint256",
          "name": "budgetId",
          "type": "uint256"
        },
        {
          "internalType": "uint256",
          "name": "amount",
          "type": "uint256"
        },
        {
          "internalType": "string",
          "name": "description",
          "type": "string"
        }
      ],
      "name": "recordSpending",
      "outputs": [],
      "stateMutability": "nonpayable",
      "type": "function"
    },
    {
      "inputs": [],
      "name": "renounceOwnership",
      "outputs": [],
      "stateMutability": "nonpayable",
      "type": "function"
    },
    {
      "inputs": [
        {
          "internalType": "address",
          "name": "newOwner",
          "type": "address"
        }
      ],
      "name": "transferOwnership",
      "outputs": [],
      "stateMutability": "nonpayable",
      "type": "function"
    },
    {
      "inputs": [
        {
          "internalType": "uint256",
          "name": "budgetId",
          "type": "uint256"
        },
        {
          "internalType": "uint256",
          "name": "newAllocatedAmount",
          "type": "uint256"
        }
      ],
      "name": "updateBudgetAllocation",
      "outputs": [],
      "stateMutability": "nonpayable",
      "type": "function"
    },
    {
      "inputs": [
        {
          "internalType": "address",
          "name": "",
          "type": "address"
        },
        {
          "internalType": "uint256",
          "name": "",
          "type": "uint256"
        }
      ],
      "name": "userBudgets",
      "outputs": [
        {
          "internalType": "uint256",
          "name": "",
          "type": "uint256"
        }
      ],
      "stateMutability": "view",
      "type": "function"
    }
  ],
  "bytecode": "0x608060405234801561001057600080fd5b5060405162001d6638038062001d66833981016040819052610031916100b2565b61003a33610062565b600180546001600160a01b0319166001600160a01b03929092169190911781556006556100e2565b600080546001600160a01b038381166001600160a01b0319831681178455604051919092169283917f8be0079c531659141344cd1fd0a4f28419497f9722a3daafe3b4186f6b6457e09190a35050565b6000602082840312156100c457600080fd5b81516001600160a01b03811681146100db57600080fd5b9392505050565b611c7480620000f26000396000f3fe608060405234801561001057600080fd5b50600436106101165760003560e01c80638aecdf62116100a2578063cb3b026511610071578063cb3b026514610275578063e07235d614610298578063f2fde38b146102ab578063fb6c06ac146102be578063fcd7e5a7146102d157600080fd5b80638aecdf62146102265780638da5cb5b14610239578063aa2c7d1d1461024a578063c3627ef61461025357600080fd5b806350a1438a116100e957806350a1438a146101b757806354370dc2146101ca57806369f0e05f146101ea578063715018a6146101fd578063815de3fe1461020557600080fd5b806322d639b21461011b5780632c79ea02146101505780632e4ea4c41461016557806336002b971461018c575b600080fd5b61012e6101293660046115f0565b6102e4565b6040805193151584526020840192909252908201526060015b60405180910390f35b61016361015e366004611647565b610592565b005b610178610173366004611669565b6106bf565b6040516101479897969594939291906116d2565b60015461019f906001600160a01b031681565b6040516001600160a01b039091168152602001610147565b6101636101c536600461172b565b610840565b6101dd6101d836600461177b565b610a7f565b60405161014791906117d1565b6101786101f8366004611669565b610aeb565b610163610bc3565b610218610213366004611669565b610bd7565b604051908152602001610147565b6102186102343660046117e4565b610d38565b6000546001600160a01b031661019f565b61021860065481565b610266610261366004611669565b610d69565b6040516101479392919061180e565b610288610283366004611647565b611041565b6040516101479493929190611893565b6102186102a63660046118c3565b611116565b6101636102b936600461177b565b611141565b6102186102cc366004611908565b6111ba565b6101636102df366004611669565b6113e8565b6001600160a01b038316600090815260036020908152604080832080548251818502810185019093528083528493849384939092909183018282801561034957602002820191906000526020600020905b815481526020019060010190808311610335575b5050505050905060005b81518110156105795760006002600084848151811061037457610374611966565b6020026020010151815260200190815260200160002060405180610100016040529081600082015481526020016001820160009054906101000a90046001600160a01b03166001600160a01b03166001600160a01b031681526020016002820180546103df9061197c565b80601f016020809104026020016040519081016040528092919081815260200182805461040b9061197c565b80156104585780601f1061042d57610100808354040283529160200191610458565b820191906000526020600020905b81548152906001019060200180831161043b57829003601f168201915b50505091835250506003820154602082015260048201546040820152600582015460608201526006820154608082015260079091015460ff16151560a09091015260e081015190915080156104fc5750876040516020016104b991906119b6565b6040516020818303038152906040528051906020012081604001516040516020016104e491906119b6565b60405160208183030381529060405280519060200120145b801561050c57508060a001514210155b801561051c57508060c001514211155b156105665760008160800151826060015161053791906119e8565b9050808811610553579051600196509094509250610589915050565b9051600096509094509250610589915050565b508061057181611a01565b915050610353565b5060016000196000935093509350505b93509350939050565b600082815260026020526040812080549091036105ca5760405162461bcd60e51b81526004016105c190611a1a565b60405180910390fd5b60018101546001600160a01b03163314806105ef57506000546001600160a01b031633145b61062c5760405162461bcd60e51b815260206004820152600e60248201526d139bdd08185d5d1a1bdc9a5e995960921b60448201526064016105c1565b6000821161064c5760405162461bcd60e51b81526004016105c190611a49565b60038101829055600781015460ff1615801561066b5750818160040154105b156106805760078101805460ff191660011790555b827fcf91367f884794ee3033ec73a082caea4fdeab2c5ff645406bd40c4314eee878836040516106b291815260200190565b60405180910390a2505050565b6000806060600080600080600080600260008b815260200190815260200160002060405180610100016040529081600082015481526020016001820160009054906101000a90046001600160a01b03166001600160a01b03166001600160a01b031681526020016002820180546107359061197c565b80601f01602080910402602001604051908101604052809291908181526020018280546107619061197c565b80156107ae5780601f10610783576101008083540402835291602001916107ae565b820191906000526020600020905b81548152906001019060200180831161079157829003601f168201915b50505050508152602001600382015481526020016004820154815260200160058201548152602001600682015481526020016007820160009054906101000a900460ff1615151515815250509050806000015181602001518260400151836060015184608001518560a001518660c001518760e001519850985098509850985098509850985050919395975091939597565b6000838152600260205260408120805490910361086f5760405162461bcd60e51b81526004016105c190611a1a565b600781015460ff166108ba5760405162461bcd60e51b8152602060048201526014602482015273427564676574206973206e6f742061637469766560601b60448201526064016105c1565b806006015442111561090e5760405162461bcd60e51b815260206004820152601760248201527f42756467657420706572696f642068617320656e64656400000000000000000060448201526064016105c1565b828160040160008282546109229190611a93565b909155505060008481526005602090815260408083208151608081018352888152808401888152928101878152426060830152825460018181018555938752949095208151600490950201938455915190830155915160028201906109879082611af5565b50606082015181600301555050837f405063e4c1398e69bd915049236ef5e0c02f4adef4abce4ce31211ba077e62db84846040516109c6929190611bb5565b60405180910390a2806003015481600401541115610a32576000816003015482600401546109f491906119e8565b9050847f29a8b5f0b76c21efab93aa687310d14a2166d3130ea90e840200e14e21d0863c82604051610a2891815260200190565b60405180910390a2505b8060030154816004015410610a795760078101805460ff1916905560405184907f1cf97ef5080c93006541c78344fbadf349718aac9a51fc4df30535586654534190600090a25b50505050565b6001600160a01b038116600090815260036020908152604091829020805483518184028101840190945280845260609392830182828015610adf57602002820191906000526020600020905b815481526020019060010190808311610acb575b50505050509050919050565b600260208190526000918252604090912080546001820154928201805491936001600160a01b03169291610b1e9061197c565b80601f0160208091040260200160405190810160405280929190818152602001828054610b4a9061197c565b8015610b975780601f10610b6c57610100808354040283529160200191610b97565b820191906000526020600020905b815481529060010190602001808311610b7a57829003601f168201915b505050600384015460048501546005860154600687015460079097015495969295919450925060ff1688565b610bcb611487565b610bd560006114e1565b565b60008181526002602081815260408084208151610100810183528154815260018201546001600160a01b031693810193909352928301805485949284019190610c1f9061197c565b80601f0160208091040260200160405190810160405280929190818152602001828054610c4b9061197c565b8015610c985780601f10610c6d57610100808354040283529160200191610c98565b820191906000526020600020905b815481529060010190602001808311610c7b57829003601f168201915b50505091835250506003820154602082015260048201546040820152600582015460608201526006820154608082015260079091015460ff16151560a0909101528051909150600003610cfd5760405162461bcd60e51b81526004016105c190611a1a565b8060600151600003610d125750600092915050565b60608101516080820151610d27906064611bd6565b610d319190611bed565b9392505050565b60036020528160005260406000208181548110610d5457600080fd5b90600052602060002001600091509150505481565b6060806060600060056000868152602001908152602001600020805480602002602001604051908101604052809291908181526020016000905b82821015610e8557838290600052602060002090600402016040518060800160405290816000820154815260200160018201548152602001600282018054610dea9061197c565b80601f0160208091040260200160405190810160405280929190818152602001828054610e169061197c565b8015610e635780601f10610e3857610100808354040283529160200191610e63565b820191906000526020600020905b815481529060010190602001808311610e4657829003601f168201915b5050505050815260200160038201548152505081526020019060010190610da3565b505082519293508291505067ffffffffffffffff811115610ea857610ea861154d565b604051908082528060200260200182016040528015610ed1578160200160208202803683370190505b5094508067ffffffffffffffff811115610eed57610eed61154d565b604051908082528060200260200182016040528015610f2057816020015b6060815260200190600190039081610f0b5790505b5093508067ffffffffffffffff811115610f3c57610f3c61154d565b604051908082528060200260200182016040528015610f65578160200160208202803683370190505b50925060005b8181101561103757828181518110610f8557610f85611966565b602002602001015160200151868281518110610fa357610fa3611966565b602002602001018181525050828181518110610fc157610fc1611966565b602002602001015160400151858281518110610fdf57610fdf611966565b6020026020010181905250828181518110610ffc57610ffc611966565b60200260200101516060015184828151811061101a5761101a611966565b60209081029190910101528061102f81611a01565b915050610f6b565b5050509193909250565b6005602052816000526040600020818154811061105d57600080fd5b90600052602060002090600402016000915091505080600001549080600101549080600201805461108d9061197c565b80601f01602080910402602001604051908101604052809291908181526020018280546110b99061197c565b80156111065780601f106110db57610100808354040283529160200191611106565b820191906000526020600020905b8154815290600101906020018083116110e957829003601f168201915b5050505050908060030154905084565b81516020818401810180516004825292820191850191909120919052805482908110610d5457600080fd5b611149611487565b6001600160a01b0381166111ae5760405162461bcd60e51b815260206004820152602660248201527f4f776e61626c653a206e6577206f776e657220697320746865207a65726f206160448201526564647265737360d01b60648201526084016105c1565b6111b7816114e1565b50565b60008083116111db5760405162461bcd60e51b81526004016105c190611a49565b600082116112365760405162461bcd60e51b815260206004820152602260248201527f4475726174696f6e206d7573742062652067726561746572207468616e207a65604482015261726f60f01b60648201526084016105c1565b600680546000918261124783611a01565b90915550905042600061125a8583611a93565b60408051610100810182528581526001600160a01b038b811660208084019182528385018d8152606085018d905260006080860181905260a086018a905260c08601889052600160e087018190528b825260029384905296902085518155925195830180546001600160a01b031916969094169590951790925592519394509092908201906112e99082611af5565b506060820151600382810191909155608083015160048084019190915560a0840151600584015560c0840151600684015560e0909301516007909201805460ff1916921515929092179091556001600160a01b038a166000908152602091825260408082208054600181018255908352929091209091018590555161136f9089906119b6565b908152604051908190036020908101822080546001810182556000918252919020018490556001600160a01b0389169084907f6fcff152ae54d536296a9d4415ba287f76346c0016c760bdd79c2f5a40d2bd04906113d4908b908b9088908890611c0f565b60405180910390a350909695505050505050565b600081815260026020526040812080549091036114175760405162461bcd60e51b81526004016105c190611a1a565b60018101546001600160a01b031633148061143c57506000546001600160a01b031633145b6114795760405162461bcd60e51b815260206004820152600e60248201526d139bdd08185d5d1a1bdc9a5e995960921b60448201526064016105c1565b600701805460ff1916905550565b6000546001600160a01b03163314610bd55760405162461bcd60e51b815260206004820181905260248201527f4f776e61626c653a2063616c6c6572206973206e6f7420746865206f776e657260448201526064016105c1565b600080546001600160a01b038381166001600160a01b0319831681178455604051919092169283917f8be0079c531659141344cd1fd0a4f28419497f9722a3daafe3b4186f6b6457e09190a35050565b80356001600160a01b038116811461154857600080fd5b919050565b634e487b7160e01b600052604160045260246000fd5b600082601f83011261157457600080fd5b813567ffffffffffffffff8082111561158f5761158f61154d565b604051601f8301601f19908116603f011681019082821181831017156115b7576115b761154d565b816040528381528660208588010111156115d057600080fd5b836020870160208301376000602085830101528094505050505092915050565b60008060006060848603121561160557600080fd5b61160e84611531565b9250602084013567ffffffffffffffff81111561162a57600080fd5b61163686828701611563565b925050604084013590509250925092565b6000806040838503121561165a57600080fd5b50508035926020909101359150565b60006020828403121561167b57600080fd5b5035919050565b60005b8381101561169d578181015183820152602001611685565b50506000910152565b600081518084526116be816020860160208601611682565b601f01601f19169290920160200192915050565b8881526001600160a01b0388166020820152610100604082018190526000906116fd8382018a6116a6565b60608401989098525050608081019490945260a084019290925260c0830152151560e0909101529392505050565b60008060006060848603121561174057600080fd5b8335925060208401359150604084013567ffffffffffffffff81111561176557600080fd5b61177186828701611563565b9150509250925092565b60006020828403121561178d57600080fd5b610d3182611531565b600081518084526020808501945080840160005b838110156117c6578151875295820195908201906001016117aa565b509495945050505050565b602081526000610d316020830184611796565b600080604083850312156117f757600080fd5b61180083611531565b946020939093013593505050565b6060815260006118216060830186611796565b6020838203818501528186518084528284019150828160051b85010183890160005b8381101561187157601f1987840301855261185f8383516116a6565b94860194925090850190600101611843565b505086810360408801526118858189611796565b9a9950505050505050505050565b8481528360208201526080604082015260006118b260808301856116a6565b905082606083015295945050505050565b600080604083850312156118d657600080fd5b823567ffffffffffffffff8111156118ed57600080fd5b6118f985828601611563565b95602094909401359450505050565b6000806000806080858703121561191e57600080fd5b61192785611531565b9350602085013567ffffffffffffffff81111561194357600080fd5b61194f87828801611563565b949794965050505060408301359260600135919050565b634e487b7160e01b600052603260045260246000fd5b600181811c9082168061199057607f821691505b6020821081036119b057634e487b7160e01b600052602260045260246000fd5b50919050565b600082516119c8818460208701611682565b9190910192915050565b634e487b7160e01b600052601160045260246000fd5b818103818111156119fb576119fb6119d2565b92915050565b600060018201611a1357611a136119d2565b5060010190565b602080825260159082015274109d5919d95d08191bd95cc81b9bdd08195e1a5cdd605a1b604082015260600190565b6020808252602a908201527f416c6c6f636174656420616d6f756e74206d7573742062652067726561746572604082015269207468616e207a65726f60b01b606082015260800190565b808201808211156119fb576119fb6119d2565b601f821115611af057600081815260208120601f850160051c81016020861015611acd5750805b601f850160051c820191505b81811015611aec57828155600101611ad9565b5050505b505050565b815167ffffffffffffffff811115611b0f57611b0f61154d565b611b2381611b1d845461197c565b84611aa6565b602080601f831160018114611b585760008415611b405750858301515b600019600386901b1c1916600185901b178555611aec565b600085815260208120601f198616915b82811015611b8757888601518255948401946001909101908401611b68565b5085821015611ba55787850151600019600388901b60f8161c191681555b5050505050600190811b01905550565b828152604060208201526000611bce60408301846116a6565b949350505050565b80820281158282048414176119fb576119fb6119d2565b600082611c0a57634e487b7160e01b600052601260045260246000fd5b500490565b608081526000611c2260808301876116a6565b602083019590955250604081019290925260609091015291905056fea26469706673582212205135dc54f360cd4dcf5571ae7574baadbdddca6e2dc2e634f1f7dfe4720140ec64736f6c63430008130033",
  "linkReferences": {},
  "deployedLinkReferences": {}
}