{
  "_format": "hh-sol-artifact-1",
  "contractName": "FinGuardToken",
  "sourceName": "contracts/FinGuardToken.sol",
  "abi": [
    {
      "inputs": [
        {
          "internalType": "string",
          "name": "name",
          "type": "string"
        },
        {
          "internalType": "string",
          "name": "symbol",
          "type": "string"
        },
        {
          "internalType": "uint8",
          "name": "decimals_",
          "type": "uint8"
        },
        {
          "internalType": "uint256",
          "name": "initialSupply",
          "type": "uint256"
        }
      ],
      "stateMutability": "nonpayable",
      "type": "constructor"
    },
    {
      "anonymous": false,
      "inputs": [
        {
          "indexed": true,
          "internalType": "address",
          "name": "owner",
          "type": "address"
        },
        {
          "indexed": true,
          "internalType": "address",
          "name": "spender",
          "type": "address"
        },
        {
          "indexed": false,
          "internalType": "uint256",
          "name": "value",
          "type": "uint256"
        }
      ],
      "name": "Approval",
      "type": "event"
    },
    {
      "anonymous": false,
      "inputs": [
        {
          "indexed": true,
          "internalType": "address",
          "name": "minter",
          "type": "address"
        }
      ],
      "name": "MinterAuthorized",
      "type": "event"
    },
    {
      "anonymous": false,
      "inputs": [
        {
          "indexed": true,
          "internalType": "address",
          "name": "minter",
          "type": "address"
        }
      ],
      "name": "MinterRevoked",
      "type": "event"
    },
    {
      "anonymous": false,
      "inputs": [
        {
          "indexed": true,
          "internalType": "address",
          "name": "previousOwner",
          "type": "address"
        },
        {
          "indexed": true,
          "internalType": "address",
          "name": "newOwner",
          "type": "address"
        }
      ],
      "name": "OwnershipTransferred",
      "type": "event"
    },
    {
      "anonymous": false,
      "inputs": [
        {
          "indexed": false,
          "internalType": "address",
          "name": "account",
          "type": "address"
        }
      ],
      "name": "Paused",
      "type": "event"
    },
    {
      "anonymous": false,
      "inputs": [
        {
          "indexed": true,
          "internalType": "address",
          "name": "from",
          "type": "address"
        },
        {
          "indexed": false,
          "internalType": "uint256",
          "name": "amount",
          "type": "uint256"
        }
      ],
      "name": "TokensBurned",
      "type": "event"
    },
    {
      "anonymous": false,
      "inputs": [
        {
          "indexed": true,
          "internalType": "address",
          "name": "to",
          "type": "address"
        },
        {
          "indexed": false,
          "internalType": "uint256",
          "name": "amount",
          "type": "uint256"
        }
      ],
      "name": "TokensMinted",
      "type": "event"
    },
    {
      "anonymous": false,
      "inputs": [
        {
          "indexed": true,
          "internalType": "address",
          "name": "from",
          "type": "address"
        },
        {
          "indexed": true,
          "internalType": "address",
          "name": "to",
          "type": "address"
        },
        {
          "indexed": false,
          "internalType": "uint256",
          "name": "value",
          "type": "uint256"
        }
      ],
      "name": "Transfer",
      "type": "event"
    },
    {
      "anonymous": false,
      "inputs": [
        {
          "indexed": false,
          "internalType": "address",
          "name": "account",
          "type": "address"
        }
      ],
      "name": "Unpaused",
      "type": "event"
    },
    {
      "inputs": [],
      "name": "MAX_SUPPLY",
      "outputs": [
        {
          "internalType": "uint256",
          "name": "",
          "type": "uint256"
        }
      ],
      "stateMutability": "view",
      "type": "function"
    },
    {
      "inputs": [
        {
          "internalType": "address",
          "name": "owner",
          "type": "address"
        },
        {
          "internalType": "address",
          "name": "spender",
          "type": "address"
        }
      ],
      "name": "allowance",
      "outputs": [
        {
          "internalType": "uint256",
          "name": "",
          "type": "uint256"
        }
      ],
      "stateMutability": "view",
      "type": "function"
    },
    {
      "inputs": [
        {
          "internalType": "address",
          "name": "spender",
          "type": "address"
        },
        {
          "internalType": "uint256",
          "name": "amount",
          "type": "uint256"
        }
      ],
      "name": "approve",
      "outputs": [
        {
          "internalType": "bool",
          "name": "",
          "type": "bool"
        }
      ],
      "stateMutability": "nonpayable",
      "type": "function"
    },
    {
      "inputs": [
        {
          "internalType": "address",
          "name": "minter",
          "type": "address"
        }
      ],
      "name": "authorizeMinter",
      "outputs": [],
      "stateMutability": "nonpayable",
      "type": "function"
    },
    {
      "inputs": [
        {
          "internalType": "address",
          "name": "",
          "type": "address"
        }
      ],
      "name": "authorizedMinters",
      "outputs": [
        {
          "internalType": "bool",
          "name": "",
          "type": "bool"
        }
      ],
      "stateMutability": "view",
      "type": "function"
    },
    {
      "inputs": [
        {
          "internalType": "address",
          "name": "account",
          "type": "address"
        }
      ],
      "name": "balanceOf",
      "outputs": [
        {
          "internalType": "uint256",
          "name": "",
          "type": "uint256"
        }
      ],
      "stateMutability": "view",
      "type": "function"
    },
    {
      "inputs": [
        {
          "internalType": "uint256",
          "name": "amount",
          "type": "uint256"
        }
      ],
      "name": "burn",
      "outputs": [],
      "stateMutability": "nonpayable",
      "type": "function"
    },
    {
      "inputs": [],
      "name": "decimals",
      "outputs": [
        {
          "internalType": "uint8",
          "name": "",
          "type": "uint8"
        }
      ],
      "stateMutability": "view",
      "type": "function"
    },
    {
      "inputs": [
        {
          "internalType": "address",
          "name": "spender",
          "type": "address"
        },
        {
          "internalType": "uint256",
          "name": "subtractedValue",
          "type": "uint256"
        }
      ],
      "name": "decreaseAllowance",
      "outputs": [
        {
          "internalType": "bool",
          "name": "",
          "type": "bool"
        }
      ],
      "stateMutability": "nonpayable",
      "type": "function"
    },
    {
      "inputs": [
        {
          "internalType": "address",
          "name": "spender",
          "type": "address"
        },
        {
          "internalType": "uint256",
          "name": "addedValue",
          "type": "uint256"
        }
      ],
      "name": "increaseAllowance",
      "outputs": [
        {
          "internalType": "bool",
          "name": "",
          "type": "bool"
        }
      ],
      "stateMutability": "nonpayable",
      "type": "function"
    },
    {
      "inputs": [
        {
          "internalType": "address",
          "name": "to",
          "type": "address"
        },
        {
          "internalType": "uint256",
          "name": "amount",
          "type": "uint256"
        }
      ],
      "name": "mint",
      "outputs": [],
      "stateMutability": "nonpayable",
      "type": "function"
    },
    {
      "inputs": [],
      "name": "name",
      "outputs": [
        {
          "internalType": "string",
          "name": "",
          "type": "string"
        }
      ],
      "stateMutability": "view",
      "type": "function"
    },
    {
      "inputs": [],
      "name": "owner",
      "outputs": [
        {
          "internalType": "address",
          "name": "",
          "type": "address"
        }
      ],
      "stateMutability": "view",
      "type": "function"
    },
    {
      "inputs": [],
      "name": "pause",
      "outputs": [],
      "stateMutability": "nonpayable",
      "type": "function"
    },
    {
      "inputs": [],
      "name": "paused",
      "outputs": [
        {
          "internalType": "bool",
          "name": "",
          "type": "bool"
        }
      ],
      "stateMutability": "view",
      "type": "function"
    },
    {
      "inputs": [],
      "name": "renounceOwnership",
      "outputs": [],
      "stateMutability": "nonpayable",
      "type": "function"
    },
    {
      "inputs": [
        {
          "internalType": "address",
          "name": "minter",
          "type": "address"
        }
      ],
      "name": "revokeMinter",
      "outputs": [],
      "stateMutability": "nonpayable",
      "type": "function"
    },
    {
      "inputs": [],
      "name": "symbol",
      "outputs": [
        {
          "internalType": "string",
          "name": "",
          "type": "string"
        }
      ],
      "stateMutability": "view",
      "type": "function"
    },
    {
      "inputs": [],
      "name": "totalSupply",
      "outputs": [
        {
          "internalType": "uint256",
          "name": "",
          "type": "uint256"
        }
      ],
      "stateMutability": "view",
      "type": "function"
    },
    {
      "inputs": [
        {
          "internalType": "address",
          "name": "to",
          "type": "address"
        },
        {
          "internalType": "uint256",
          "name": "amount",
          "type": "uint256"
        }
      ],
      "name": "transfer",
      "outputs": [
        {
          "internalType": "bool",
          "name": "",
          "type": "bool"
        }
      ],
      "stateMutability": "nonpayable",
      "type": "function"
    },
    {
      "inputs": [
        {
          "internalType": "address",
          "name": "from",
          "type": "address"
        },
        {
          "internalType": "address",
          "name": "to",
          "type": "address"
        },
        {
          "internalType": "uint256",
          "name": "amount",
          "type": "uint256"
        }
      ],
      "name": "transferFrom",
      "outputs": [
        {
          "internalType": "bool",
          "name": "",
          "type": "bool"
        }
      ],
      "stateMutability": "nonpayable",
      "type": "function"
    },
    {
      "inputs": [
        {
          "internalType": "address",
          "name": "newOwner",
          "type": "address"
        }
      ],
      "name": "transferOwnership",
      "outputs": [],
      "stateMutability": "nonpayable",
      "type": "function"
    },
    {
      "inputs": [],
      "name": "unpause",
      "outputs": [],
      "stateMutability": "nonpayable",
      "type": "function"
    }
  ],
  "bytecode": "0x60806040523480156200001157600080fd5b506040516200166638038062001666833981016040819052620000349162000355565b838360036200004483826200046e565b5060046200005382826200046e565b505050620000706200006a6200010160201b60201c565b62000105565b6005805461ffff60a01b1916600160a81b60ff8516021790556b033b2e3c9fd0803ce8000000811115620000eb5760405162461bcd60e51b815260206004820152601e60248201527f496e697469616c20737570706c792065786365656473206d6178696d756d000060448201526064015b60405180910390fd5b620000f7338262000157565b5050505062000562565b3390565b600580546001600160a01b038381166001600160a01b0319831681179093556040519116919082907f8be0079c531659141344cd1fd0a4f28419497f9722a3daafe3b4186f6b6457e090600090a35050565b6001600160a01b038216620001af5760405162461bcd60e51b815260206004820152601f60248201527f45524332303a206d696e7420746f20746865207a65726f2061646472657373006044820152606401620000e2565b620001bd6000838362000228565b8060026000828254620001d191906200053a565b90915550506001600160a01b038216600081815260208181526040808320805486019055518481527fddf252ad1be2c89b69c2b068fc378daa952ba7f163c4a11628f55a4df523b3ef910160405180910390a35050565b6200023c600554600160a01b900460ff1690565b156200028b5760405162461bcd60e51b815260206004820152601a60248201527f546f6b656e207472616e736665727320617265207061757365640000000000006044820152606401620000e2565b505050565b634e487b7160e01b600052604160045260246000fd5b600082601f830112620002b857600080fd5b81516001600160401b0380821115620002d557620002d562000290565b604051601f8301601f19908116603f0116810190828211818310171562000300576200030062000290565b816040528381526020925086838588010111156200031d57600080fd5b600091505b8382101562000341578582018301518183018401529082019062000322565b600093810190920192909252949350505050565b600080600080608085870312156200036c57600080fd5b84516001600160401b03808211156200038457600080fd5b6200039288838901620002a6565b95506020870151915080821115620003a957600080fd5b50620003b887828801620002a6565b935050604085015160ff81168114620003d057600080fd5b6060959095015193969295505050565b600181811c90821680620003f557607f821691505b6020821081036200041657634e487b7160e01b600052602260045260246000fd5b50919050565b601f8211156200028b57600081815260208120601f850160051c81016020861015620004455750805b601f850160051c820191505b81811015620004665782815560010162000451565b505050505050565b81516001600160401b038111156200048a576200048a62000290565b620004a2816200049b8454620003e0565b846200041c565b602080601f831160018114620004da5760008415620004c15750858301515b600019600386901b1c1916600185901b17855562000466565b600085815260208120601f198616915b828110156200050b57888601518255948401946001909101908401620004ea565b50858210156200052a5787850151600019600388901b60f8161c191681555b5050505050600190811b01905550565b808201808211156200055c57634e487b7160e01b600052601160045260246000fd5b92915050565b6110f480620005726000396000f3fe608060405234801561001057600080fd5b506004361061014d5760003560e01c80635c975abb116100c3578063a457c2d71161007c578063a457c2d7146102ae578063a9059cbb146102c1578063aa2fe91b146102d4578063cfbd4885146102f7578063dd62ed3e1461030a578063f2fde38b1461031d57600080fd5b80635c975abb1461024057806370a0823114610252578063715018a61461027b5780638456cb59146102835780638da5cb5b1461028b57806395d89b41146102a657600080fd5b8063313ce56711610115578063313ce567146101cd57806332cb6b0c146101ec57806339509351146101ff5780633f4ba83a1461021257806340c10f191461021a57806342966c681461022d57600080fd5b806306fdde0314610152578063095ea7b3146101705780630c9848321461019357806318160ddd146101a857806323b872dd146101ba575b600080fd5b61015a610330565b6040516101679190610f25565b60405180910390f35b61018361017e366004610f8f565b6103c2565b6040519015158152602001610167565b6101a66101a1366004610fb9565b6103dc565b005b6002545b604051908152602001610167565b6101836101c8366004610fdb565b610430565b600554600160a81b900460ff1660405160ff9091168152602001610167565b6101ac6b033b2e3c9fd0803ce800000081565b61018361020d366004610f8f565b610454565b6101a6610476565b6101a6610228366004610f8f565b610488565b6101a661023b366004611017565b6105a5565b600554600160a01b900460ff16610183565b6101ac610260366004610fb9565b6001600160a01b031660009081526020819052604090205490565b6101a66105e7565b6101a66105f9565b6005546040516001600160a01b039091168152602001610167565b61015a610609565b6101836102bc366004610f8f565b610618565b6101836102cf366004610f8f565b610693565b6101836102e2366004610fb9565b60066020526000908152604090205460ff1681565b6101a6610305366004610fb9565b6106a1565b6101ac610318366004611030565b6106f2565b6101a661032b366004610fb9565b61071d565b60606003805461033f90611063565b80601f016020809104026020016040519081016040528092919081815260200182805461036b90611063565b80156103b85780601f1061038d576101008083540402835291602001916103b8565b820191906000526020600020905b81548152906001019060200180831161039b57829003601f168201915b5050505050905090565b6000336103d0818585610796565b60019150505b92915050565b6103e46108bb565b6001600160a01b038116600081815260066020526040808220805460ff19166001179055517f83b05b6735acd4b85e3bded8e72c851d1a87718f81e3c8e6f0c9d9a2baa88e469190a250565b60003361043e858285610915565b61044985858561098f565b506001949350505050565b6000336103d081858561046783836106f2565b610471919061109d565b610796565b61047e6108bb565b610486610b3e565b565b3360009081526006602052604090205460ff166104e55760405162461bcd60e51b8152602060048201526016602482015275139bdd08185d5d1a1bdc9a5e9959081d1bc81b5a5b9d60521b60448201526064015b60405180910390fd5b6b033b2e3c9fd0803ce8000000816104fc60025490565b610506919061109d565b11156105545760405162461bcd60e51b815260206004820152601760248201527f576f756c6420657863656564206d617820737570706c7900000000000000000060448201526064016104dc565b61055e8282610b93565b816001600160a01b03167f3f2c9d57c068687834f0de942a9babb9e5acab57d516d3480a3c16ee165a42738260405161059991815260200190565b60405180910390a25050565b6105af3382610c5e565b60405181815233907ffd38818f5291bf0bb3a2a48aadc06ba8757865d1dabd804585338aab3009dcb69060200160405180910390a250565b6105ef6108bb565b6104866000610d99565b6106016108bb565b610486610deb565b60606004805461033f90611063565b6000338161062682866106f2565b9050838110156106865760405162461bcd60e51b815260206004820152602560248201527f45524332303a2064656372656173656420616c6c6f77616e63652062656c6f77604482015264207a65726f60d81b60648201526084016104dc565b6104498286868403610796565b6000336103d081858561098f565b6106a96108bb565b6001600160a01b038116600081815260066020526040808220805460ff19169055517f44f4322f8daa225d5f4877ad0f7d3dfba248a774396f3ca99405ed40a044fe819190a250565b6001600160a01b03918216600090815260016020908152604080832093909416825291909152205490565b6107256108bb565b6001600160a01b03811661078a5760405162461bcd60e51b815260206004820152602660248201527f4f776e61626c653a206e6577206f776e657220697320746865207a65726f206160448201526564647265737360d01b60648201526084016104dc565b61079381610d99565b50565b6001600160a01b0383166107f85760405162461bcd60e51b8152602060048201526024808201527f45524332303a20617070726f76652066726f6d20746865207a65726f206164646044820152637265737360e01b60648201526084016104dc565b6001600160a01b0382166108595760405162461bcd60e51b815260206004820152602260248201527f45524332303a20617070726f766520746f20746865207a65726f206164647265604482015261737360f01b60648201526084016104dc565b6001600160a01b0383811660008181526001602090815260408083209487168084529482529182902085905590518481527f8c5be1e5ebec7d5bd14f71427d1e84f3dd0314c0f7b2291e5b200ac8c7c3b92591015b60405180910390a3505050565b6005546001600160a01b031633146104865760405162461bcd60e51b815260206004820181905260248201527f4f776e61626c653a2063616c6c6572206973206e6f7420746865206f776e657260448201526064016104dc565b600061092184846106f2565b90506000198114610989578181101561097c5760405162461bcd60e51b815260206004820152601d60248201527f45524332303a20696e73756666696369656e7420616c6c6f77616e636500000060448201526064016104dc565b6109898484848403610796565b50505050565b6001600160a01b0383166109f35760405162461bcd60e51b815260206004820152602560248201527f45524332303a207472616e736665722066726f6d20746865207a65726f206164604482015264647265737360d81b60648201526084016104dc565b6001600160a01b038216610a555760405162461bcd60e51b815260206004820152602360248201527f45524332303a207472616e7366657220746f20746865207a65726f206164647260448201526265737360e81b60648201526084016104dc565b610a60838383610e2e565b6001600160a01b03831660009081526020819052604090205481811015610ad85760405162461bcd60e51b815260206004820152602660248201527f45524332303a207472616e7366657220616d6f756e7420657863656564732062604482015265616c616e636560d01b60648201526084016104dc565b6001600160a01b03848116600081815260208181526040808320878703905593871680835291849020805487019055925185815290927fddf252ad1be2c89b69c2b068fc378daa952ba7f163c4a11628f55a4df523b3ef910160405180910390a3610989565b610b46610e88565b6005805460ff60a01b191690557f5db9ee0a495bf2e6ff9c91a7834c1ba4fdd244a5e8aa4e537bd38aeae4b073aa335b6040516001600160a01b03909116815260200160405180910390a1565b6001600160a01b038216610be95760405162461bcd60e51b815260206004820152601f60248201527f45524332303a206d696e7420746f20746865207a65726f20616464726573730060448201526064016104dc565b610bf560008383610e2e565b8060026000828254610c07919061109d565b90915550506001600160a01b038216600081815260208181526040808320805486019055518481527fddf252ad1be2c89b69c2b068fc378daa952ba7f163c4a11628f55a4df523b3ef910160405180910390a35050565b6001600160a01b038216610cbe5760405162461bcd60e51b815260206004820152602160248201527f45524332303a206275726e2066726f6d20746865207a65726f206164647265736044820152607360f81b60648201526084016104dc565b610cca82600083610e2e565b6001600160a01b03821660009081526020819052604090205481811015610d3e5760405162461bcd60e51b815260206004820152602260248201527f45524332303a206275726e20616d6f756e7420657863656564732062616c616e604482015261636560f01b60648201526084016104dc565b6001600160a01b0383166000818152602081815260408083208686039055600280548790039055518581529192917fddf252ad1be2c89b69c2b068fc378daa952ba7f163c4a11628f55a4df523b3ef91016108ae565b505050565b600580546001600160a01b038381166001600160a01b0319831681179093556040519116919082907f8be0079c531659141344cd1fd0a4f28419497f9722a3daafe3b4186f6b6457e090600090a35050565b610df3610ed8565b6005805460ff60a01b1916600160a01b1790557f62e78cea01bee320cd4e420270b5ea74000d11b0c9f74754ebdbfc544b05a258610b763390565b600554600160a01b900460ff1615610d945760405162461bcd60e51b815260206004820152601a60248201527f546f6b656e207472616e7366657273206172652070617573656400000000000060448201526064016104dc565b600554600160a01b900460ff166104865760405162461bcd60e51b815260206004820152601460248201527314185d5cd8589b194e881b9bdd081c185d5cd95960621b60448201526064016104dc565b600554600160a01b900460ff16156104865760405162461bcd60e51b815260206004820152601060248201526f14185d5cd8589b194e881c185d5cd95960821b60448201526064016104dc565b600060208083528351808285015260005b81811015610f5257858101830151858201604001528201610f36565b506000604082860101526040601f19601f8301168501019250505092915050565b80356001600160a01b0381168114610f8a57600080fd5b919050565b60008060408385031215610fa257600080fd5b610fab83610f73565b946020939093013593505050565b600060208284031215610fcb57600080fd5b610fd482610f73565b9392505050565b600080600060608486031215610ff057600080fd5b610ff984610f73565b925061100760208501610f73565b9150604084013590509250925092565b60006020828403121561102957600080fd5b5035919050565b6000806040838503121561104357600080fd5b61104c83610f73565b915061105a60208401610f73565b90509250929050565b600181811c9082168061107757607f821691505b60208210810361109757634e487b7160e01b600052602260045260246000fd5b50919050565b808201808211156103d657634e487b7160e01b600052601160045260246000fdfea26469706673582212200aefad548eb9d017aa7392fe05ead3716b0e1895c2ff2b22a7c2fa33221ee50864736f6c63430008130033",
  "linkReferences": {},
  "deployedLinkReferences": {}
}